{
  "contractName": "BJToken",
  "abi": [
    {
      "constant": true,
      "inputs": [],
      "name": "name",
      "outputs": [
        {
          "name": "",
          "type": "string"
        }
      ],
      "payable": false,
      "stateMutability": "view",
      "type": "function"
    },
    {
      "constant": true,
      "inputs": [
        {
          "name": "",
          "type": "address"
        }
      ],
      "name": "balanceOf",
      "outputs": [
        {
          "name": "",
          "type": "uint256"
        }
      ],
      "payable": false,
      "stateMutability": "view",
      "type": "function"
    },
    {
      "constant": true,
      "inputs": [],
      "name": "symbol",
      "outputs": [
        {
          "name": "",
          "type": "string"
        }
      ],
      "payable": false,
      "stateMutability": "view",
      "type": "function"
    },
    {
      "constant": true,
      "inputs": [
        {
          "name": "",
          "type": "address"
        },
        {
          "name": "",
          "type": "address"
        }
      ],
      "name": "allowance",
      "outputs": [
        {
          "name": "",
          "type": "uint256"
        }
      ],
      "payable": false,
      "stateMutability": "view",
      "type": "function"
    },
    {
      "anonymous": false,
      "inputs": [
        {
          "indexed": true,
          "name": "_from",
          "type": "address"
        },
        {
          "indexed": true,
          "name": "_to",
          "type": "address"
        },
        {
          "indexed": false,
          "name": "_value",
          "type": "uint256"
        }
      ],
      "name": "Transfer",
      "type": "event"
    },
    {
      "anonymous": false,
      "inputs": [
        {
          "indexed": true,
          "name": "_owner",
          "type": "address"
        },
        {
          "indexed": true,
          "name": "_spender",
          "type": "address"
        },
        {
          "indexed": false,
          "name": "_value",
          "type": "uint256"
        }
      ],
      "name": "Approval",
      "type": "event"
    },
    {
      "constant": false,
      "inputs": [
        {
          "name": "_to",
          "type": "address"
        },
        {
          "name": "_amount",
          "type": "uint256"
        }
      ],
      "name": "addTokens",
      "outputs": [
        {
          "name": "success",
          "type": "bool"
        }
      ],
      "payable": false,
      "stateMutability": "nonpayable",
      "type": "function"
    },
    {
      "constant": false,
      "inputs": [
        {
          "name": "_to",
          "type": "address"
        },
        {
          "name": "_amount",
          "type": "uint256"
        }
      ],
      "name": "deductTokens",
      "outputs": [
        {
          "name": "success",
          "type": "bool"
        }
      ],
      "payable": false,
      "stateMutability": "nonpayable",
      "type": "function"
    }
  ],
  "bytecode": "0x608060405234801561001057600080fd5b5061035d806100206000396000f3fe6080604052600436106100775763ffffffff7c010000000000000000000000000000000000000000000000000000000060003504166306fdde03811461007c5780636039fbdb1461010657806370a082311461015357806395d89b4114610198578063b126d0e9146101ad578063dd62ed3e146101e6575b600080fd5b34801561008857600080fd5b50610091610221565b6040805160208082528351818301528351919283929083019185019080838360005b838110156100cb5781810151838201526020016100b3565b50505050905090810190601f1680156100f85780820380516001836020036101000a031916815260200191505b509250505060405180910390f35b34801561011257600080fd5b5061013f6004803603604081101561012957600080fd5b50600160a060020a038135169060200135610258565b604080519115158252519081900360200190f35b34801561015f57600080fd5b506101866004803603602081101561017657600080fd5b5035600160a060020a031661027e565b60408051918252519081900360200190f35b3480156101a457600080fd5b50610091610290565b3480156101b957600080fd5b5061013f600480360360408110156101d057600080fd5b50600160a060020a0381351690602001356102c7565b3480156101f257600080fd5b506101866004803603604081101561020957600080fd5b50600160a060020a0381358116916020013516610314565b60408051808201909152600781527f626a546f6b656e00000000000000000000000000000000000000000000000000602082015281565b600160a060020a0382166000908152602081905260409020805482019055600192915050565b60006020819052908152604090205481565b60408051808201909152600281527f424a000000000000000000000000000000000000000000000000000000000000602082015281565b600160a060020a0382166000908152602081905260408120548211156102ec57600080fd5b50600160a060020a038216600090815260208190526040902080548290039055600192915050565b60016020908152600092835260408084209091529082529020548156fea165627a7a723058209191d774683e9046df2e0ada4b26c0476d1abc21da1dea32aed062e2194494970029",
  "source": "pragma solidity ^0.5.0;\r\n\r\ncontract BJToken {\r\n\r\n    string public constant name = \"bjToken\";\r\n    string public constant symbol = \"BJ\";\r\n    // string public constant decimal = 0;\r\n    // uint256 public totalSupply;\r\n\r\n    event Transfer(\r\n        address indexed _from,\r\n        address indexed _to,\r\n        uint256 _value\r\n    );\r\n\r\n    event Approval(\r\n        address indexed _owner,\r\n        address indexed _spender,\r\n        uint256 _value\r\n    );\r\n\r\n\r\n    mapping(address => uint256) public balanceOf;\r\n    mapping(address => mapping(address => uint256)) public allowance;\r\n    \r\n\r\n    function addTokens(address _to, uint256 _amount) public returns (bool success) {\r\n        balanceOf[_to] += _amount;\r\n        return true;\r\n    }\r\n\r\n    function deductTokens(address _to, uint256 _amount) public returns (bool success) {\r\n        require(balanceOf[_to] >= _amount);\r\n        balanceOf[_to] -= _amount;\r\n        return true;\r\n    }\r\n\r\n    // function approve(address _spender, uint256 _value) public returns (bool success) {\r\n    //     allowance[msg.sender][_spender] = _value;\r\n\r\n    //     emit Approval(msg.sender, _spender, _value);\r\n\r\n    //     return true;\r\n    // }\r\n\r\n    // function transferFrom(address _from, address _to, uint256 _value) public returns (bool success) {\r\n    //     require(_value <= balanceOf[_from]);\r\n    //     require(_value <= allowance[_from][msg.sender]);\r\n\r\n    //     balanceOf[_from] -= _value;\r\n    //     balanceOf[_to] += _value;\r\n\r\n    //     allowance[_from][msg.sender] -= _value;\r\n\r\n    //     emit Transfer(_from, _to, _value);\r\n\r\n    //     return true;\r\n    // }\r\n}",
  "sourcePath": "C:\\Users\\Sagie\\Desktop\\Desktop\\Courses\\Semester D\\Workshop in Smart Contracts - Solidity\\git-code\\bjEther\\contracts\\BJToken.sol",
  "compiler": {
    "name": "solc",
    "version": "0.5.0+commit.1d4f565a.Emscripten.clang"
  },
  "schemaVersion": "3.0.1",
  "updatedAt": "2021-08-12T09:10:23.403Z",
  "devdoc": {
    "methods": {}
  },
  "userdoc": {
    "methods": {}
  }
}