{
  "contractName": "BJTokenGame",
  "abi": [
    {
      "constant": true,
      "inputs": [],
      "name": "tokenContract",
      "outputs": [
        {
          "name": "",
          "type": "address"
        }
      ],
      "payable": false,
      "stateMutability": "view",
      "type": "function"
    },
    {
      "constant": true,
      "inputs": [],
      "name": "tokenPrice",
      "outputs": [
        {
          "name": "",
          "type": "uint256"
        }
      ],
      "payable": false,
      "stateMutability": "view",
      "type": "function"
    },
    {
      "inputs": [
        {
          "name": "_tokenContract",
          "type": "address"
        },
        {
          "name": "_tokenPrice",
          "type": "uint256"
        }
      ],
      "payable": false,
      "stateMutability": "nonpayable",
      "type": "constructor"
    },
    {
      "anonymous": false,
      "inputs": [
        {
          "indexed": false,
          "name": "_buyer",
          "type": "address"
        },
        {
          "indexed": false,
          "name": "_amount",
          "type": "uint256"
        }
      ],
      "name": "Sell",
      "type": "event"
    },
    {
      "anonymous": false,
      "inputs": [
        {
          "indexed": false,
          "name": "_account",
          "type": "address"
        },
        {
          "indexed": false,
          "name": "_amount",
          "type": "uint256"
        }
      ],
      "name": "BalanceOf",
      "type": "event"
    },
    {
      "anonymous": false,
      "inputs": [
        {
          "indexed": false,
          "name": "_msg",
          "type": "string"
        }
      ],
      "name": "Alert",
      "type": "event"
    },
    {
      "anonymous": false,
      "inputs": [
        {
          "indexed": false,
          "name": "_user",
          "type": "string"
        },
        {
          "indexed": false,
          "name": "_newAmount",
          "type": "uint256"
        }
      ],
      "name": "SetAmount",
      "type": "event"
    },
    {
      "anonymous": false,
      "inputs": [
        {
          "indexed": false,
          "name": "_id",
          "type": "string"
        },
        {
          "indexed": false,
          "name": "_newText",
          "type": "string"
        }
      ],
      "name": "ChangeHTMLText",
      "type": "event"
    },
    {
      "anonymous": false,
      "inputs": [
        {
          "indexed": false,
          "name": "_user",
          "type": "string"
        },
        {
          "indexed": false,
          "name": "_index",
          "type": "uint256"
        },
        {
          "indexed": false,
          "name": "_suit",
          "type": "string"
        },
        {
          "indexed": false,
          "name": "_value",
          "type": "string"
        }
      ],
      "name": "PlaceCard",
      "type": "event"
    },
    {
      "constant": false,
      "inputs": [
        {
          "name": "_numberOfTokens",
          "type": "uint256"
        }
      ],
      "name": "buyTokens",
      "outputs": [],
      "payable": true,
      "stateMutability": "payable",
      "type": "function"
    },
    {
      "constant": false,
      "inputs": [
        {
          "name": "_numberOfTokens",
          "type": "uint256"
        }
      ],
      "name": "withdraw",
      "outputs": [],
      "payable": false,
      "stateMutability": "nonpayable",
      "type": "function"
    },
    {
      "constant": false,
      "inputs": [],
      "name": "checkIfPlayerTurn",
      "outputs": [
        {
          "name": "",
          "type": "bool"
        }
      ],
      "payable": false,
      "stateMutability": "nonpayable",
      "type": "function"
    },
    {
      "constant": false,
      "inputs": [],
      "name": "hitHTML",
      "outputs": [],
      "payable": false,
      "stateMutability": "nonpayable",
      "type": "function"
    },
    {
      "constant": false,
      "inputs": [],
      "name": "standHTML",
      "outputs": [],
      "payable": false,
      "stateMutability": "nonpayable",
      "type": "function"
    },
    {
      "constant": false,
      "inputs": [],
      "name": "singleGame",
      "outputs": [],
      "payable": false,
      "stateMutability": "nonpayable",
      "type": "function"
    }
  ],
  "bytecode": "0x60036101008181527fe299a000000000000000000000000000000000000000000000000000000000006101205260809081526101408281527fe299a200000000000000000000000000000000000000000000000000000000006101605260a0526101808281527fe299a700000000000000000000000000000000000000000000000000000000006101a05260c0526102006040526101c08281527fe299a500000000000000000000000000000000000000000000000000000000006101e05260e052620000cf919060046200097d565b50604080516101e08101825260016101a082018181527f41000000000000000000000000000000000000000000000000000000000000006101c08401528252825180840184528181527f320000000000000000000000000000000000000000000000000000000000000060208281019190915280840191909152835180850185528281527f33000000000000000000000000000000000000000000000000000000000000008183015283850152835180850185528281527f3400000000000000000000000000000000000000000000000000000000000000818301526060840152835180850185528281527f3500000000000000000000000000000000000000000000000000000000000000818301526080840152835180850185528281527f36000000000000000000000000000000000000000000000000000000000000008183015260a0840152835180850185528281527f37000000000000000000000000000000000000000000000000000000000000008183015260c0840152835180850185528281527f38000000000000000000000000000000000000000000000000000000000000008183015260e0840152835180850185528281527f39000000000000000000000000000000000000000000000000000000000000008183015261010084015283518085018552600281527f313000000000000000000000000000000000000000000000000000000000000081830152610120840152835180850185528281527f4a0000000000000000000000000000000000000000000000000000000000000081830152610140840152835180850185528281527f51000000000000000000000000000000000000000000000000000000000000008183015261016084015283518085019094529083527f4b00000000000000000000000000000000000000000000000000000000000000908301526101808101919091526200039e90600790600d620009d4565b50607e805461ffff191690556016607f556011608055348015620003c157600080fd5b50604051604080620029f283398101806040526040811015620003e357600080fd5b5080516020909101516000805433600160a060020a03199182161790915560018054909116600160a060020a03841617905560028190556200042d64010000000062000448810204565b6200044064010000000062000794810204565b505062000b44565b604080517f410000000000000000000000000000000000000000000000000000000000000081526014600180830182905283519283900360219081018420600b90557f32000000000000000000000000000000000000000000000000000000000000008452838201839052845193849003810184206002908190557f3300000000000000000000000000000000000000000000000000000000000000855284830184905285519485900382018520600390557f3400000000000000000000000000000000000000000000000000000000000000855284830184905285519485900382018520600490557f3500000000000000000000000000000000000000000000000000000000000000855284830184905285519485900382018520600590557f36000000000000000000000000000000000000000000000000000000000000008552848301849052855194859003820185206006908190557f3700000000000000000000000000000000000000000000000000000000000000865285840185905286519586900383018620600790557f3800000000000000000000000000000000000000000000000000000000000000865285840185905286519586900383018620600890557f3900000000000000000000000000000000000000000000000000000000000000865285840185905286519586900383018620600990557f313000000000000000000000000000000000000000000000000000000000000086529085018490528551948590036022018520600a908190557f4a000000000000000000000000000000000000000000000000000000000000008652858401859052865195869003830186208190557f51000000000000000000000000000000000000000000000000000000000000008652858401859052865195869003830186208190557f4b000000000000000000000000000000000000000000000000000000000000008652858401949094528551948590039091018420929092557f506c6179657200000000000000000000000000000000000000000000000000008352601583830181905284519384900360269081018520600090557f4465616c6572000000000000000000000000000000000000000000000000000085529284015292519182900301902055565b6000805b6004811015620009745760005b600d8110156200096a57620007b962000a19565b6040805180820190915280600785600d8110620007d257fe5b01805460408051602060026001851615610100026000190190941693909304601f810184900484028201840190925281815292918301828280156200085b5780601f106200082f576101008083540402835291602001916200085b565b820191906000526020600020905b8154815290600101906020018083116200083d57829003601f168201915b5050509183525050602001600384600481106200087457fe5b01805460408051602060026001851615610100026000190190941693909304601f81018490048402820184019092528181529291830182828015620008fd5780601f10620008d157610100808354040283529160200191620008fd565b820191906000526020600020905b815481529060010190602001808311620008df57829003601f168201915b50505050508152509050806016856034811015156200091857fe5b6002020160008201518160000190805190602001906200093a92919062000a30565b50602082810151805162000955926001850192019062000a30565b505050600193840193919091019050620007a5565b5060010162000798565b50506000608755565b8260048101928215620009c2579160200282015b82811115620009c25782518051620009b191849160209091019062000a30565b509160200191906001019062000991565b50620009d092915062000ab1565b5090565b82600d8101928215620009c2579160200282015b82811115620009c2578251805162000a0891849160209091019062000a30565b5091602001919060010190620009e8565b604080518082019091526060808252602082015290565b828054600181600116156101000203166002900490600052602060002090601f016020900481019282601f1062000a7357805160ff191683800117855562000aa3565b8280016001018555821562000aa3579182015b8281111562000aa357825182559160200191906001019062000a86565b50620009d092915062000adc565b62000ad991905b80821115620009d057600062000acf828262000af9565b5060010162000ab8565b90565b62000ad991905b80821115620009d0576000815560010162000ae3565b50805460018160011615610100020316600290046000825580601f1062000b21575062000b41565b601f01602090049060005260206000209081019062000b41919062000adc565b50565b611e9e8062000b546000396000f3fe60806040526004361061008d5763ffffffff7c0100000000000000000000000000000000000000000000000000000000600035041663122e265881146100925780632e1a7d4d146100bb5780633610724e146100e757806347fe75e5146101045780634fd4c2c71461011957806355a373d61461012e5780637ff9b5961461015f578063df271f6514610186575b600080fd5b34801561009e57600080fd5b506100a761019b565b604080519115158252519081900360200190f35b3480156100c757600080fd5b506100e5600480360360208110156100de57600080fd5b503561026c565b005b6100e5600480360360208110156100fd57600080fd5b5035610487565b34801561011057600080fd5b506100e5610518565b34801561012557600080fd5b506100e561061d565b34801561013a57600080fd5b506101436106dc565b60408051600160a060020a039092168252519081900360200190f35b34801561016b57600080fd5b506101746106eb565b60408051918252519081900360200190f35b34801561019257600080fd5b506100e56106f1565b607e5460009060ff16151561026557607e54610100900460ff16151561020e57604080516020808252601a908201527f507265737320274e65772047616d652720746f20737461727421000000000000818301529051600080516020611e138339815191529181900360600190a161025d565b6040805160208082526014908201527f4974206973206e6f7420796f7572207475726e21000000000000000000000000818301529051600080516020611e138339815191529181900360600190a15b506000610269565b5060015b90565b6000811161027957600080fd5b6001546040805160e060020a6370a0823102815233600482015290518392600160a060020a0316916370a08231916024808301926020929190829003018186803b1580156102c657600080fd5b505afa1580156102da573d6000803e3d6000fd5b505050506040513d60208110156102f057600080fd5b505110156102fd57600080fd5b6002546040513391830280156108fc02916000818181858888f1935050505015801561032d573d6000803e3d6000fd5b50600154604080517fb126d0e9000000000000000000000000000000000000000000000000000000008152336004820152602481018490529051600160a060020a039092169163b126d0e9916044808201926020929091908290030181600087803b15801561039b57600080fd5b505af11580156103af573d6000803e3d6000fd5b505050506040513d60208110156103c557600080fd5b50506001546040805160e060020a6370a08231028152336004820181905291517f53fa2f1ab3ce356105837b2d33e4d9445d41050bf57eca18817186e0242a08a993600160a060020a0316916370a08231916024808301926020929190829003018186803b15801561043657600080fd5b505afa15801561044a573d6000803e3d6000fd5b505050506040513d602081101561046057600080fd5b505160408051600160a060020a03909316835260208301919091528051918290030190a150565b6000341161049457600080fd5b6104a0816002546107a7565b34146104ab57600080fd5b600154604080517f6039fbdb000000000000000000000000000000000000000000000000000000008152336004820152602481018490529051600160a060020a0390921691636039fbdb916044808201926020929091908290030181600087803b15801561039b57600080fd5b6001546040805160e060020a6370a082310281523360048201529051600092600160a060020a0316916370a08231916024808301926020929190829003018186803b15801561056657600080fd5b505afa15801561057a573d6000803e3d6000fd5b505050506040513d602081101561059057600080fd5b5051116105ea576040805160208082526013908201527f4e6f7420656e6f7567682062616c616e63652100000000000000000000000000818301529051600080516020611e138339815191529181900360600190a161061b565b6105f26107d5565b6105fa610a3d565b610602610c95565b607e805460ff1961ff0019909116610100171660011790555b565b61062561019b565b15156106305761061b565b61065c604080519081016040528060068152602001600080516020611e53833981519152815250610e4a565b1561061b576040805181815260038183015260e860020a626d73670260608201526080602082018190526019908201527f506c6179657220627573742e204445414c45522057494e53210000000000000060a08201529051600080516020611e338339815191529181900360c00190a16106d4610fc5565b61061b61111d565b600154600160a060020a031681565b60025481565b6106f961019b565b15156107045761061b565b607e805460ff191690556040805181815260038183015260e860020a626d73670260608201526080602082018190526024908201527f4e6f77207761697420666f7220746865206465616c657220746f2066696e697360a08201527f682e2e2e0000000000000000000000000000000000000000000000000000000060c08201529051600080516020611e338339815191529181900360e00190a16106d461112a565b60008115806107c45750508082028282828115156107c157fe5b04145b15156107cf57600080fd5b92915050565b60005b6103e8811015610a3a57600060346107ee611425565b8115156107f757fe5b06905060006034610806611425565b81151561080f57fe5b06905061081a611cbb565b6016836034811061082757fe5b60408051600292830293909301805460606020601f60001961010060018616150201909316959095049182018590049094028501840183529184018281529092849284918401828280156108bc5780601f10610891576101008083540402835291602001916108bc565b820191906000526020600020905b81548152906001019060200180831161089f57829003601f168201915b50505050508152602001600182018054600181600116156101000203166002900480601f01602080910402602001604051908101604052809291908181526020018280546001816001161561010002031660029004801561095e5780601f106109335761010080835404028352916020019161095e565b820191906000526020600020905b81548152906001019060200180831161094157829003601f168201915b505050505081525050905060168260348110151561097857fe5b600202016016846034811061098957fe5b60020201600082018160000190805460018160011615610100020316600290046109b4929190611cd2565b50600182018160010190805460018160011615610100020316600290046109dc929190611cd2565b508291506016905083603481106109ef57fe5b600202016000820151816000019080519060200190610a0f929190611d57565b506020828101518051610a289260018501920190611d57565b5050600190940193506107d892505050565b50565b60015b60408051600080516020611e5383398151915281526015600682015290519081900360260190205460819060028110610a7557fe5b0154811015610b3357604080516020810183905260808082526001908201527f700000000000000000000000000000000000000000000000000000000000000060a082015260c08183018190526006908201527f72656d6f7665000000000000000000000000000000000000000000000000000060e08201526101006060820181905260009082015290517f1d9def06989d0fdde56f34a9839a90f6e3af054b423734c77af19bc0f5353508918190036101400190a1600101610a40565b5060015b6040805160d160020a652232b0b632b90281526015600682015290519081900360260190205460819060028110610b6a57fe5b0154811015610c2857604080516020810183905260808082526001908201527f640000000000000000000000000000000000000000000000000000000000000060a082015260c08183018190526006908201527f72656d6f7665000000000000000000000000000000000000000000000000000060e08201526101006060820181905260009082015290517f1d9def06989d0fdde56f34a9839a90f6e3af054b423734c77af19bc0f5353508918190036101400190a1600101610b37565b506040805181815260038183015260e860020a626d736702606082015260806020808301829052908201527f507265737320274e65772047616d652720746f20737461727420616761696e2160a08201529051600080516020611e338339815191529181900360c00190a1565b6040805180820190915260018082526020820152610cb7906081906002611dc5565b506040805180820190915260008082526020820152610cda906083906002611dc5565b506040805180820190915260008082526020820152610cfd906085906002611dc5565b50610d2c604080519081016040528060068152602001600080516020611e538339815191528152506000611467565b610d5860408051908101604052806006815260200160d160020a652232b0b632b9028152506000611467565b610d8260408051908101604052806006815260200160d160020a652232b0b632b902815250610e4a565b50610daf604080519081016040528060068152602001600080516020611e53833981519152815250610e4a565b50610ddc604080519081016040528060068152602001600080516020611e53833981519152815250610e4a565b506040805181815260038183015260e860020a626d73670260608201526080602082018190526014908201527f596f75206d617920484954206f72205354414e4400000000000000000000000060a08201529051600080516020611e338339815191529181900360c00190a1565b60006034608754101515610eae57604080516020808252600a908201527f656d707479206465636b00000000000000000000000000000000000000000000818301529051600080516020611e138339815191529181900360600190a1506000610fc0565b610eb6611cbb565b610ebe61157f565b9050610eca83826116e4565b601481600001516040518082805190602001908083835b60208310610f005780518252601f199092019160209182019101610ee1565b51815160209384036101000a6000190180199092169116179052920194855250604051938490030190922054600b14159150610fae90505760856015846040518082805190602001908083835b60208310610f6c5780518252601f199092019160209182019101610f4d565b51815160209384036101000a600019018019909216911617905292019485525060405193849003019092205491505060028110610fa557fe5b01805460010190555b610fbc83607f5460006119b9565b9150505b919050565b60018054604080517fb126d0e9000000000000000000000000000000000000000000000000000000008152336004820152602481019390935251600160a060020a039091169163b126d0e99160448083019260209291908290030181600087803b15801561103257600080fd5b505af1158015611046573d6000803e3d6000fd5b505050506040513d602081101561105c57600080fd5b50506001546040805160e060020a6370a08231028152336004820181905291517f53fa2f1ab3ce356105837b2d33e4d9445d41050bf57eca18817186e0242a08a993600160a060020a0316916370a08231916024808301926020929190829003018186803b1580156110cd57600080fd5b505afa1580156110e1573d6000803e3d6000fd5b505050506040513d60208110156110f757600080fd5b505160408051600160a060020a03909316835260208301919091528051918290030190a1565b607e805461ffff19169055565b61115960408051908101604052806006815260200160d160020a652232b0b632b90281525060805460016119b9565b151561118f5761118960408051908101604052806006815260200160d160020a652232b0b632b902815250610e4a565b5061112a565b6111be60408051908101604052806006815260200160d160020a652232b0b632b902815250607f5460006119b9565b1561123b576040805181815260038183015260e860020a626d73670260608201526080602082018190526019908201527f4465616c657220627573742e20504c415945522057494e53210000000000000060a08201529051600080516020611e338339815191529181900360c00190a1611236611b49565b61061b565b60408051600080516020611e538339815191528152601560068201529051908190036026019020546000906083906002811061127357fe5b01546040805160d160020a652232b0b632b902815260156006820152905190819003602601902054909150600090608390600281106112ae57fe5b015490508082141561132c576040805181815260038183015260e860020a626d7367026060820152608060208201819052600b908201527f497427732061207469652100000000000000000000000000000000000000000060a08201529051600080516020611e338339815191529181900360c00190a1505061061b565b808211156113ae576040805181815260038183015260e860020a626d7367026060820152608060208201819052600c908201527f504c415945522057494e5321000000000000000000000000000000000000000060a08201529051600080516020611e338339815191529181900360c00190a16113a7611b49565b505061061b565b6040805181815260038183015260e860020a626d7367026060820152608060208201819052600c908201527f4445414c45522057494e5321000000000000000000000000000000000000000060a08201529051600080516020611e338339815191529181900360c00190a1611421610fc5565b5050565b604080514460208083019190915242828401526c0100000000000000000000000033026060830152825160548184030181526074909201909252805191012090565b8060836015846040518082805190602001908083835b6020831061149c5780518252601f19909201916020918201910161147d565b51815160209384036101000a6000190180199092169116179052920194855250604051938490030190922054915050600281106114d557fe5b01819055507fbddac1178984c0b19fc7c85ab816b7d96982ca64ca3f533c1d057350cdc24d9b82826040518080602001838152602001828103825284818151815260200191508051906020019080838360005b83811015611540578181015183820152602001611528565b50505050905090810190601f16801561156d5780820380516001836020036101000a031916815260200191505b50935050505060405180910390a15050565b611587611cbb565b60878054600181019091556016906034811061159f57fe5b60408051600292830293909301805460606020601f60001961010060018616150201909316959095049182018590049094028501840183529184018281529092849284918401828280156116345780601f1061160957610100808354040283529160200191611634565b820191906000526020600020905b81548152906001019060200180831161161757829003601f168201915b50505050508152602001600182018054600181600116156101000203166002900480601f0160208091040260200160405190810160405280929190818152602001828054600181600116156101000203166002900480156116d65780601f106116ab576101008083540402835291602001916116d6565b820191906000526020600020905b8154815290600101906020018083116116b957829003601f168201915b505050505081525050905090565b600060816015846040518082805190602001908083835b6020831061171a5780518252601f1990920191602091820191016116fb565b51815160209384036101000a60001901801990921691161790529201948552506040519384900301909220549150506002811061175357fe5b015490507f1d9def06989d0fdde56f34a9839a90f6e3af054b423734c77af19bc0f535350883828460200151856000015160405180806020018581526020018060200180602001848103845288818151815260200191508051906020019080838360005b838110156117cf5781810151838201526020016117b7565b50505050905090810190601f1680156117fc5780820380516001836020036101000a031916815260200191505b50848103835286518152865160209182019188019080838360005b8381101561182f578181015183820152602001611817565b50505050905090810190601f16801561185c5780820380516001836020036101000a031916815260200191505b50848103825285518152855160209182019187019080838360005b8381101561188f578181015183820152602001611877565b50505050905090810190601f1680156118bc5780820380516001836020036101000a031916815260200191505b5097505050505050505060405180910390a161193f83601484600001516040518082805190602001908083835b602083106119085780518252601f1990920191602091820191016118e9565b51815160209384036101000a6000190180199092169116179052920194855250604051938490030190922054915060009050611bb6565b60816015846040518082805190602001908083835b602083106119735780518252601f199092019160209182019101611954565b51815160209384036101000a6000190180199092169116179052920194855250604051938490030190922054915050600281106119ac57fe5b0180546001019055505050565b60005b8260836015866040518082805190602001908083835b602083106119f15780518252601f1990920191602091820191016119d2565b51815160209384036101000a600019018019909216911617905292019485525060405193849003019092205491505060028110611a2a57fe5b015410611b3e5760856015856040518082805190602001908083835b60208310611a655780518252601f199092019160209182019101611a46565b51815160209384036101000a600019018019909216911617905292019485525060405193849003019092205491505060028110611a9e57fe5b01541580611aa95750815b15611ab657506001611b42565b60856015856040518082805190602001908083835b60208310611aea5780518252601f199092019160209182019101611acb565b51815160209384036101000a600019018019909216911617905292019485525060405193849003019092205491505060028110611b2357fe5b018054600019019055611b3984600a6001611bb6565b6119bc565b5060005b9392505050565b60018054604080517f6039fbdb000000000000000000000000000000000000000000000000000000008152336004820152602481019390935251600160a060020a0390911691636039fbdb9160448083019260209291908290030181600087803b15801561103257600080fd5b6000811515611c37578260836015866040518082805190602001908083835b60208310611bf45780518252601f199092019160209182019101611bd5565b51815160209384036101000a600019018019909216911617905292019485525060405193849003019092205491505060028110611c2d57fe5b0154019050611cab565b8260836015866040518082805190602001908083835b60208310611c6c5780518252601f199092019160209182019101611c4d565b51815160209384036101000a600019018019909216911617905292019485525060405193849003019092205491505060028110611ca557fe5b01540390505b611cb58482611467565b50505050565b604080518082019091526060808252602082015290565b828054600181600116156101000203166002900490600052602060002090601f016020900481019282601f10611d0b5780548555611d47565b82800160010185558215611d4757600052602060002091601f016020900482015b82811115611d47578254825591600101919060010190611d2c565b50611d53929150611df8565b5090565b828054600181600116156101000203166002900490600052602060002090601f016020900481019282601f10611d9857805160ff1916838001178555611d47565b82800160010185558215611d47579182015b82811115611d47578251825591602001919060010190611daa565b8260028101928215611d47579160200282015b82811115611d47578251829060ff16905591602001919060010190611dd8565b61026991905b80821115611d535760008155600101611dfe56feb42f912d2a6c6c7da83228b8b84b12578ffa4267ec2980110bcf1f59c083298689b36a4f20a8a61ef3f4b26bba154d5ff87ed00f15e6fa2712b370e0d394a6a5506c617965720000000000000000000000000000000000000000000000000000a165627a7a72305820ba8592797b57a52ac88c9f2c570c33ff89a8290a69d21a0ef5aaae8b5fa48f790029",
  "source": "pragma solidity ^0.5.0;\r\n\r\nimport \"./BJToken.sol\";\r\n\r\ncontract BJTokenGame {\r\n    address admin;\r\n    BJToken public tokenContract;\r\n    uint256 public tokenPrice;\r\n\r\n    event Sell(address _buyer, uint256 _amount);\r\n    event BalanceOf(address _account, uint256 _amount);\r\n\r\n    constructor (BJToken _tokenContract, uint256 _tokenPrice) public {\r\n        admin = msg.sender;\r\n        tokenContract = _tokenContract;\r\n        tokenPrice = _tokenPrice;\r\n        initMaps();\r\n        initDeck();\r\n    }\r\n\r\n    function multiply(uint x, uint y) internal pure returns (uint z) {\r\n        require(y == 0 || (z = x * y) / y == x);\r\n    }\r\n\r\n    function buyTokens(uint256 _numberOfTokens) public payable {\r\n        require(msg.value > 0);\r\n        require(msg.value == multiply(_numberOfTokens, tokenPrice));\r\n        \r\n        tokenContract.addTokens(msg.sender, _numberOfTokens);\r\n\r\n        emit BalanceOf(msg.sender, tokenContract.balanceOf(msg.sender));\r\n    }\r\n\r\n    function withdraw(uint256 _numberOfTokens) public {\r\n        require(_numberOfTokens > 0);\r\n        require(tokenContract.balanceOf(msg.sender) >= _numberOfTokens);\r\n\r\n        msg.sender.transfer(_numberOfTokens * tokenPrice);\r\n\r\n        tokenContract.deductTokens(msg.sender, _numberOfTokens);\r\n\r\n        emit BalanceOf(msg.sender, tokenContract.balanceOf(msg.sender));\r\n    }\r\n\r\n\r\n    //-------------------------------- Game Logic ----------------------------------------------\r\n\r\n    function random() private view returns (uint) {\r\n        // sha3 and now have been deprecated\r\n        return uint(keccak256(abi.encodePacked(block.difficulty, block.timestamp, msg.sender)));\r\n        // convert hash to integer\r\n        // players is an array of entrants\r\n        \r\n    }\r\n\r\n    event Alert(string _msg);\r\n    event SetAmount(string _user, uint _newAmount);\r\n    event ChangeHTMLText(string _id, string _newText);\r\n    event PlaceCard(string _user, uint _index, string _suit, string _value);\r\n\r\n    string[4] suits = [\"\\u2660\", \"\\u2662\", \"\\u2667\", \"\\u2665\"];\r\n    string[13] values = [\"A\", \"2\", \"3\", \"4\", \"5\", \"6\", \"7\", \"8\", \"9\", \"10\", \"J\", \"Q\", \"K\"];\r\n\r\n    mapping(string => uint) valuesToNumbers;\r\n    mapping(string => uint) userToIndex;\r\n\r\n    function initMaps() private {\r\n\r\n        valuesToNumbers[\"A\"] = 11;\r\n        valuesToNumbers[\"2\"] = 2;\r\n        valuesToNumbers[\"3\"] = 3;\r\n        valuesToNumbers[\"4\"] = 4;\r\n        valuesToNumbers[\"5\"] = 5;\r\n        valuesToNumbers[\"6\"] = 6;\r\n        valuesToNumbers[\"7\"] = 7;\r\n        valuesToNumbers[\"8\"] = 8;\r\n        valuesToNumbers[\"9\"] = 9;\r\n        valuesToNumbers[\"10\"] = 10;\r\n        valuesToNumbers[\"J\"] = 10;\r\n        valuesToNumbers[\"Q\"] = 10;\r\n        valuesToNumbers[\"K\"] = 10;\r\n\r\n        userToIndex[\"Player\"] = 0;\r\n        userToIndex[\"Dealer\"] = 1;\r\n    }\r\n\r\n    struct Card {\r\n        string value;\r\n        string suit;\r\n    }\r\n\r\n    Card[52] deck;\r\n\r\n    bool playerTurn = false;        // indicates whether the player can hit or stand\r\n    bool inGame = false;            // indicates whether the player is currently in game\r\n    uint BUSTLIMIT = 22;\r\n    uint DEALLIMIT = 17;\r\n\r\n    uint[2] indexInTable;\r\n    uint[2] amount;\r\n    uint[2] countAces;\r\n\r\n    uint indexInDeck;\r\n\r\n    function initDeck() private {\r\n        uint index = 0;\r\n\r\n        for(uint i = 0; i < suits.length; i++) {\r\n            for(uint j = 0; j < values.length; j++) {\r\n                Card memory card = Card(values[i], suits[j]);\r\n                deck[index] = card;\r\n                index++;\r\n            }\r\n        }\r\n        indexInDeck = 0;\r\n    }\r\n\r\n    function setAmount(string memory user, uint newAmount) private {\r\n        amount[userToIndex[user]] = newAmount;\r\n        emit SetAmount(user, newAmount);\r\n    }\r\n\r\n    function addAmount(string memory user, uint adding, bool minus) private {\r\n        uint ret = 0;\r\n        if (!minus) {\r\n            ret = amount[userToIndex[user]] + adding;\r\n        } else {\r\n            ret = amount[userToIndex[user]] - adding;\r\n        }\r\n        \r\n        setAmount(user, ret);\r\n    }\r\n\r\n    function popDeck() private returns (Card memory) {\r\n        indexInDeck++;\r\n        return deck[indexInDeck - 1];\r\n    }\r\n    \r\n    function placeCard(string memory user, Card memory card) private {\r\n        uint index = indexInTable[userToIndex[user]];\r\n        emit PlaceCard(user, index, card.suit, card.value);\r\n        addAmount(user, valuesToNumbers[card.value], false);\r\n        indexInTable[userToIndex[user]]++;\r\n    }\r\n\r\n\r\n    function shuffle() private {\r\n        for (uint i = 0; i < 1000; i++) {\r\n            uint location1 = random() % deck.length;\r\n            uint location2 = random() % deck.length;\r\n            Card memory tmp = deck[location1];\r\n\r\n            deck[location1] = deck[location2];\r\n            deck[location2] = tmp;\r\n        }\r\n    }\r\n\r\n    function checkIfPlayerTurn() public returns(bool) {\r\n        if (!playerTurn) {\r\n            if (!inGame) {\r\n                emit Alert(\"Press \\'New Game\\' to start!\");\r\n            } else {\r\n                emit Alert(\"It is not your turn!\");\r\n            }\r\n            return false;\r\n        }\r\n        return true;\r\n    }\r\n\r\n    function hitHTML() public {\r\n        if (!checkIfPlayerTurn()) {\r\n            return;\r\n        }\r\n        if (hitJS(\"Player\")) {\r\n            emit ChangeHTMLText(\"msg\", \"Player bust. DEALER WINS!\");\r\n            dealerWin();\r\n            endGame();\r\n        }\r\n    }\r\n\r\n    function hitJS(string memory user) private returns (bool) {\r\n        //opens the top card of the deck\r\n        if (indexInDeck >= deck.length) {\r\n            emit Alert(\"empty deck\");\r\n            return false;\r\n        }\r\n        Card memory card = popDeck();\r\n        placeCard(user, card);\r\n        if (valuesToNumbers[card.value] == 11) {\r\n            countAces[userToIndex[user]]++;\r\n        }\r\n\r\n        return isAbove(user, BUSTLIMIT, false);\r\n\r\n    }\r\n\r\n    function standHTML() public {\r\n        if (!checkIfPlayerTurn()) {\r\n            return;\r\n        }\r\n        playerTurn = false;\r\n        emit ChangeHTMLText(\"msg\", \"Now wait for the dealer to finish...\");\r\n        runDealer();\r\n        endGame();\r\n    }\r\n\r\n    function runDealer() private {\r\n        while (!isAbove(\"Dealer\", DEALLIMIT, true)) {\r\n            hitJS(\"Dealer\");\r\n        }\r\n\r\n        if (isAbove(\"Dealer\", BUSTLIMIT, false)) {\r\n            emit ChangeHTMLText(\"msg\", \"Dealer bust. PLAYER WINS!\");\r\n            playerWin();\r\n            return;\r\n        }\r\n\r\n        uint playerAmount = amount[userToIndex[\"Player\"]];\r\n        uint dealerAmount = amount[userToIndex[\"Dealer\"]];\r\n\r\n        if (playerAmount == dealerAmount) {\r\n            emit ChangeHTMLText(\"msg\", \"It's a tie!\");\r\n            return;\r\n        }\r\n\r\n        if (playerAmount > dealerAmount) {\r\n            emit ChangeHTMLText(\"msg\", \"PLAYER WINS!\");\r\n            playerWin();\r\n            return;\r\n        }\r\n\r\n        emit ChangeHTMLText(\"msg\", \"DEALER WINS!\");\r\n        dealerWin();\r\n    }\r\n\r\n    function isAbove(string memory user, uint limit, bool deal) private returns(bool) {\r\n        // returns whether we have passed the limit\r\n        \r\n        while (amount[userToIndex[user]] >= limit) {\r\n            if ((countAces[userToIndex[user]] == 0) || deal) {\r\n                return true;\r\n            }\r\n            //wait 1 second\r\n            countAces[userToIndex[user]]--;\r\n            addAmount(user, 10, true);\r\n\r\n        }\r\n        \r\n        return false;\r\n    }   \r\n\r\n    function playerWin() private {\r\n        tokenContract.addTokens(msg.sender, 1);\r\n        emit BalanceOf(msg.sender, tokenContract.balanceOf(msg.sender));\r\n    }\r\n\r\n\r\n    function dealerWin() private {\r\n        tokenContract.deductTokens(msg.sender, 1);\r\n        emit BalanceOf(msg.sender, tokenContract.balanceOf(msg.sender));\r\n    }\r\n\r\n    function cleanTable() private {\r\n        // clean: all the cards\r\n        for (uint i = 1; i < indexInTable[userToIndex[\"Player\"]]; i++) {\r\n            emit PlaceCard(\"p\", i, \"remove\", \"\");\r\n        }\r\n        for (uint i = 1; i < indexInTable[userToIndex[\"Dealer\"]]; i++){\r\n            emit PlaceCard(\"d\", i, \"remove\", \"\");\r\n        }\r\n\r\n        emit ChangeHTMLText(\"msg\", \"Press \\'New Game\\' to start again!\");\r\n    }\r\n\r\n    function endGame() private {\r\n        playerTurn = false;\r\n        inGame = false;\r\n    }\r\n\r\n    function gameSetup() private {\r\n        indexInTable = [1, 1];\r\n        amount = [0, 0];\r\n        countAces = [0, 0];\r\n        setAmount(\"Player\", 0);\r\n        setAmount(\"Dealer\", 0);\r\n        hitJS(\"Dealer\");\r\n        hitJS(\"Player\");\r\n        hitJS(\"Player\");\r\n        emit ChangeHTMLText(\"msg\", \"You may HIT or STAND\");\r\n    }\r\n\r\n    function singleGame() public {\r\n        if (tokenContract.balanceOf(msg.sender) <= 0) {\r\n            emit Alert(\"Not enough balance!\");\r\n            return;\r\n        }\r\n        shuffle();\r\n        cleanTable();\r\n        gameSetup();\r\n        inGame = true;\r\n        playerTurn = true;\r\n    }\r\n}",
  "sourcePath": "C:/Users/Sagie/Desktop/Desktop/Courses/Semester D/Workshop in Smart Contracts - Solidity/git-code/bjEther/contracts/BJTokenGame.sol",
  "compiler": {
    "name": "solc",
    "version": "0.5.0+commit.1d4f565a.Emscripten.clang"
  },
  "schemaVersion": "3.0.1",
  "updatedAt": "2021-08-12T08:57:24.677Z",
  "devdoc": {
    "methods": {}
  },
  "userdoc": {
    "methods": {}
  }
}