{
  "contractName": "BJToken",
  "abi": [
    {
      "constant": true,
      "inputs": [],
      "name": "name",
      "outputs": [
        {
          "name": "",
          "type": "string"
        }
      ],
      "payable": false,
      "stateMutability": "view",
      "type": "function",
      "signature": "0x06fdde03"
    },
    {
      "constant": true,
      "inputs": [
        {
          "name": "",
          "type": "address"
        }
      ],
      "name": "balanceOf",
      "outputs": [
        {
          "name": "",
          "type": "uint256"
        }
      ],
      "payable": false,
      "stateMutability": "view",
      "type": "function",
      "signature": "0x70a08231"
    },
    {
      "constant": true,
      "inputs": [],
      "name": "symbol",
      "outputs": [
        {
          "name": "",
          "type": "string"
        }
      ],
      "payable": false,
      "stateMutability": "view",
      "type": "function",
      "signature": "0x95d89b41"
    },
    {
      "constant": true,
      "inputs": [
        {
          "name": "",
          "type": "address"
        },
        {
          "name": "",
          "type": "address"
        }
      ],
      "name": "allowance",
      "outputs": [
        {
          "name": "",
          "type": "uint256"
        }
      ],
      "payable": false,
      "stateMutability": "view",
      "type": "function",
      "signature": "0xdd62ed3e"
    },
    {
      "anonymous": false,
      "inputs": [
        {
          "indexed": true,
          "name": "_from",
          "type": "address"
        },
        {
          "indexed": true,
          "name": "_to",
          "type": "address"
        },
        {
          "indexed": false,
          "name": "_value",
          "type": "uint256"
        }
      ],
      "name": "Transfer",
      "type": "event",
      "signature": "0xddf252ad1be2c89b69c2b068fc378daa952ba7f163c4a11628f55a4df523b3ef"
    },
    {
      "anonymous": false,
      "inputs": [
        {
          "indexed": true,
          "name": "_owner",
          "type": "address"
        },
        {
          "indexed": true,
          "name": "_spender",
          "type": "address"
        },
        {
          "indexed": false,
          "name": "_value",
          "type": "uint256"
        }
      ],
      "name": "Approval",
      "type": "event",
      "signature": "0x8c5be1e5ebec7d5bd14f71427d1e84f3dd0314c0f7b2291e5b200ac8c7c3b925"
    },
    {
      "constant": false,
      "inputs": [
        {
          "name": "_to",
          "type": "address"
        },
        {
          "name": "_value",
          "type": "uint256"
        }
      ],
      "name": "transfer",
      "outputs": [
        {
          "name": "success",
          "type": "bool"
        }
      ],
      "payable": false,
      "stateMutability": "nonpayable",
      "type": "function",
      "signature": "0xa9059cbb"
    },
    {
      "constant": false,
      "inputs": [
        {
          "name": "_to",
          "type": "address"
        },
        {
          "name": "_amount",
          "type": "uint256"
        }
      ],
      "name": "mint",
      "outputs": [
        {
          "name": "success",
          "type": "bool"
        }
      ],
      "payable": false,
      "stateMutability": "nonpayable",
      "type": "function",
      "signature": "0x40c10f19"
    },
    {
      "constant": false,
      "inputs": [
        {
          "name": "account",
          "type": "address"
        }
      ],
      "name": "getBalance",
      "outputs": [
        {
          "name": "balance",
          "type": "uint256"
        }
      ],
      "payable": false,
      "stateMutability": "nonpayable",
      "type": "function",
      "signature": "0xf8b2cb4f"
    },
    {
      "constant": false,
      "inputs": [
        {
          "name": "_spender",
          "type": "address"
        },
        {
          "name": "_value",
          "type": "uint256"
        }
      ],
      "name": "approve",
      "outputs": [
        {
          "name": "success",
          "type": "bool"
        }
      ],
      "payable": false,
      "stateMutability": "nonpayable",
      "type": "function",
      "signature": "0x095ea7b3"
    },
    {
      "constant": false,
      "inputs": [
        {
          "name": "_from",
          "type": "address"
        },
        {
          "name": "_to",
          "type": "address"
        },
        {
          "name": "_value",
          "type": "uint256"
        }
      ],
      "name": "transferFrom",
      "outputs": [
        {
          "name": "success",
          "type": "bool"
        }
      ],
      "payable": false,
      "stateMutability": "nonpayable",
      "type": "function",
      "signature": "0x23b872dd"
    }
  ],
  "bytecode": "0x608060405234801561001057600080fd5b506105bc806100206000396000f3fe6080604052600436106100985763ffffffff7c010000000000000000000000000000000000000000000000000000000060003504166306fdde03811461009d578063095ea7b31461012757806323b872dd1461017457806340c10f19146101b757806370a08231146101f057806395d89b4114610235578063a9059cbb1461024a578063dd62ed3e14610283578063f8b2cb4f146102be575b600080fd5b3480156100a957600080fd5b506100b26102f1565b6040805160208082528351818301528351919283929083019185019080838360005b838110156100ec5781810151838201526020016100d4565b50505050905090810190601f1680156101195780820380516001836020036101000a031916815260200191505b509250505060405180910390f35b34801561013357600080fd5b506101606004803603604081101561014a57600080fd5b50600160a060020a038135169060200135610328565b604080519115158252519081900360200190f35b34801561018057600080fd5b506101606004803603606081101561019757600080fd5b50600160a060020a0381358116916020810135909116906040013561038e565b3480156101c357600080fd5b50610160600480360360408110156101da57600080fd5b50600160a060020a03813516906020013561046b565b3480156101fc57600080fd5b506102236004803603602081101561021357600080fd5b5035600160a060020a0316610487565b60408051918252519081900360200190f35b34801561024157600080fd5b506100b2610499565b34801561025657600080fd5b506101606004803603604081101561026d57600080fd5b50600160a060020a0381351690602001356104d0565b34801561028f57600080fd5b50610223600480360360408110156102a657600080fd5b50600160a060020a0381358116916020013516610558565b3480156102ca57600080fd5b50610223600480360360208110156102e157600080fd5b5035600160a060020a0316610575565b60408051808201909152600781527f626a546f6b656e00000000000000000000000000000000000000000000000000602082015281565b336000818152600160209081526040808320600160a060020a038716808552908352818420869055815186815291519394909390927f8c5be1e5ebec7d5bd14f71427d1e84f3dd0314c0f7b2291e5b200ac8c7c3b925928290030190a350600192915050565b600160a060020a0383166000908152602081905260408120548211156103b357600080fd5b600160a060020a03841660009081526001602090815260408083203384529091529020548211156103e357600080fd5b600160a060020a038085166000818152602081815260408083208054889003905593871680835284832080548801905583835260018252848320338452825291849020805487900390558351868152935191937fddf252ad1be2c89b69c2b068fc378daa952ba7f163c4a11628f55a4df523b3ef929081900390910190a35060019392505050565b3360009081526020819052604081208054909201909155919050565b60006020819052908152604090205481565b60408051808201909152600281527f424a000000000000000000000000000000000000000000000000000000000000602082015281565b336000908152602081905260408120548211156104ec57600080fd5b3360008181526020818152604080832080548790039055600160a060020a03871680845292819020805487019055805186815290519293927fddf252ad1be2c89b69c2b068fc378daa952ba7f163c4a11628f55a4df523b3ef929181900390910190a350600192915050565b600160209081526000928352604080842090915290825290205481565b600160a060020a03166000908152602081905260409020549056fea165627a7a72305820a512c41131578089f571e770225919e14a4ab3c29c59c2cbbb257f9a06852b060029",
  "source": "pragma solidity ^0.5.0;\r\n\r\ncontract BJToken {\r\n\r\n    string public constant name = \"bjToken\";\r\n    string public constant symbol = \"BJ\";\r\n    // string public constant decimal = 0;\r\n    // uint256 public totalSupply;\r\n\r\n    event Transfer(\r\n        address indexed _from,\r\n        address indexed _to,\r\n        uint256 _value\r\n    );\r\n\r\n    event Approval(\r\n        address indexed _owner,\r\n        address indexed _spender,\r\n        uint256 _value\r\n    );\r\n\r\n\r\n    mapping(address => uint256) public balanceOf;\r\n    mapping(address => mapping(address => uint256)) public allowance;\r\n\r\n    // constructor (uint256 _initialSupply) public {\r\n    //     balanceOf[msg.sender] = _initialSupply;\r\n    //     totalSupply = _initialSupply;\r\n    // }\r\n\r\n    function transfer(address _to, uint256 _value) public returns (bool success) {\r\n        require(balanceOf[msg.sender] >= _value);\r\n\r\n        balanceOf[msg.sender] -= _value;\r\n        balanceOf[_to] += _value;\r\n\r\n        emit Transfer(msg.sender, _to, _value);\r\n\r\n        return true;\r\n    }\r\n\r\n    function mint(address _to, uint256 _amount) public returns (bool success) {\r\n        balanceOf[msg.sender] += _amount;\r\n    }\r\n\r\n    function getBalance(address account) public returns (uint256 balance) {\r\n        return balanceOf[account];\r\n    }\r\n\r\n    function approve(address _spender, uint256 _value) public returns (bool success) {\r\n        allowance[msg.sender][_spender] = _value;\r\n\r\n        emit Approval(msg.sender, _spender, _value);\r\n\r\n        return true;\r\n    }\r\n\r\n    function transferFrom(address _from, address _to, uint256 _value) public returns (bool success) {\r\n        require(_value <= balanceOf[_from]);\r\n        require(_value <= allowance[_from][msg.sender]);\r\n\r\n        balanceOf[_from] -= _value;\r\n        balanceOf[_to] += _value;\r\n\r\n        allowance[_from][msg.sender] -= _value;\r\n\r\n        emit Transfer(_from, _to, _value);\r\n\r\n        return true;\r\n    }\r\n}",
  "sourcePath": "C:\\Users\\Sagie\\Desktop\\Desktop\\Courses\\Semester D\\Workshop in Smart Contracts - Solidity\\git-code\\bjEther\\contracts\\BJToken.sol",
  "compiler": {
    "name": "solc",
    "version": "0.5.0+commit.1d4f565a.Emscripten.clang"
  },
  "schemaVersion": "3.0.1",
  "updatedAt": "2021-08-11T10:50:54.642Z",
  "devdoc": {
    "methods": {}
  },
  "userdoc": {
    "methods": {}
  }
}