{
  "contractName": "BJToken",
  "abi": [
    {
      "constant": true,
      "inputs": [],
      "name": "name",
      "outputs": [
        {
          "name": "",
          "type": "string"
        }
      ],
      "payable": false,
      "stateMutability": "view",
      "type": "function"
    },
    {
      "constant": true,
      "inputs": [
        {
          "name": "",
          "type": "address"
        }
      ],
      "name": "balanceOf",
      "outputs": [
        {
          "name": "",
          "type": "uint256"
        }
      ],
      "payable": false,
      "stateMutability": "view",
      "type": "function"
    },
    {
      "constant": true,
      "inputs": [],
      "name": "symbol",
      "outputs": [
        {
          "name": "",
          "type": "string"
        }
      ],
      "payable": false,
      "stateMutability": "view",
      "type": "function"
    },
    {
      "constant": true,
      "inputs": [
        {
          "name": "",
          "type": "address"
        },
        {
          "name": "",
          "type": "address"
        }
      ],
      "name": "allowance",
      "outputs": [
        {
          "name": "",
          "type": "uint256"
        }
      ],
      "payable": false,
      "stateMutability": "view",
      "type": "function"
    },
    {
      "anonymous": false,
      "inputs": [
        {
          "indexed": true,
          "name": "_from",
          "type": "address"
        },
        {
          "indexed": true,
          "name": "_to",
          "type": "address"
        },
        {
          "indexed": false,
          "name": "_value",
          "type": "uint256"
        }
      ],
      "name": "Transfer",
      "type": "event"
    },
    {
      "anonymous": false,
      "inputs": [
        {
          "indexed": true,
          "name": "_owner",
          "type": "address"
        },
        {
          "indexed": true,
          "name": "_spender",
          "type": "address"
        },
        {
          "indexed": false,
          "name": "_value",
          "type": "uint256"
        }
      ],
      "name": "Approval",
      "type": "event"
    },
    {
      "constant": false,
      "inputs": [
        {
          "name": "_to",
          "type": "address"
        },
        {
          "name": "_amount",
          "type": "uint256"
        }
      ],
      "name": "addAmount",
      "outputs": [
        {
          "name": "success",
          "type": "bool"
        }
      ],
      "payable": false,
      "stateMutability": "nonpayable",
      "type": "function"
    },
    {
      "constant": false,
      "inputs": [
        {
          "name": "_to",
          "type": "address"
        },
        {
          "name": "_amount",
          "type": "uint256"
        }
      ],
      "name": "deductAmount",
      "outputs": [
        {
          "name": "success",
          "type": "bool"
        }
      ],
      "payable": false,
      "stateMutability": "nonpayable",
      "type": "function"
    },
    {
      "constant": false,
      "inputs": [
        {
          "name": "_spender",
          "type": "address"
        },
        {
          "name": "_value",
          "type": "uint256"
        }
      ],
      "name": "approve",
      "outputs": [
        {
          "name": "success",
          "type": "bool"
        }
      ],
      "payable": false,
      "stateMutability": "nonpayable",
      "type": "function"
    },
    {
      "constant": false,
      "inputs": [
        {
          "name": "_from",
          "type": "address"
        },
        {
          "name": "_to",
          "type": "address"
        },
        {
          "name": "_value",
          "type": "uint256"
        }
      ],
      "name": "transferFrom",
      "outputs": [
        {
          "name": "success",
          "type": "bool"
        }
      ],
      "payable": false,
      "stateMutability": "nonpayable",
      "type": "function"
    }
  ],
  "bytecode": "0x608060405234801561001057600080fd5b50610532806100206000396000f3fe60806040526004361061008d5763ffffffff7c010000000000000000000000000000000000000000000000000000000060003504166306fdde038114610092578063095ea7b31461011c57806322b42c4f1461016957806323b872dd146101a257806370a08231146101e557806395d89b411461022a578063dd62ed3e1461023f578063f1af92b61461027a575b600080fd5b34801561009e57600080fd5b506100a76102b3565b6040805160208082528351818301528351919283929083019185019080838360005b838110156100e15781810151838201526020016100c9565b50505050905090810190601f16801561010e5780820380516001836020036101000a031916815260200191505b509250505060405180910390f35b34801561012857600080fd5b506101556004803603604081101561013f57600080fd5b50600160a060020a0381351690602001356102ea565b604080519115158252519081900360200190f35b34801561017557600080fd5b506101556004803603604081101561018c57600080fd5b50600160a060020a038135169060200135610350565b3480156101ae57600080fd5b50610155600480360360608110156101c557600080fd5b50600160a060020a0381358116916020810135909116906040013561039d565b3480156101f157600080fd5b506102186004803603602081101561020857600080fd5b5035600160a060020a031661047a565b60408051918252519081900360200190f35b34801561023657600080fd5b506100a761048c565b34801561024b57600080fd5b506102186004803603604081101561026257600080fd5b50600160a060020a03813581169160200135166104c3565b34801561028657600080fd5b506101556004803603604081101561029d57600080fd5b50600160a060020a0381351690602001356104e0565b60408051808201909152600781527f626a546f6b656e00000000000000000000000000000000000000000000000000602082015281565b336000818152600160209081526040808320600160a060020a038716808552908352818420869055815186815291519394909390927f8c5be1e5ebec7d5bd14f71427d1e84f3dd0314c0f7b2291e5b200ac8c7c3b925928290030190a350600192915050565b600160a060020a03821660009081526020819052604081205482111561037557600080fd5b50600160a060020a038216600090815260208190526040902080548290039055600192915050565b600160a060020a0383166000908152602081905260408120548211156103c257600080fd5b600160a060020a03841660009081526001602090815260408083203384529091529020548211156103f257600080fd5b600160a060020a038085166000818152602081815260408083208054889003905593871680835284832080548801905583835260018252848320338452825291849020805487900390558351868152935191937fddf252ad1be2c89b69c2b068fc378daa952ba7f163c4a11628f55a4df523b3ef929081900390910190a35060019392505050565b60006020819052908152604090205481565b60408051808201909152600281527f424a000000000000000000000000000000000000000000000000000000000000602082015281565b600160209081526000928352604080842090915290825290205481565b600160a060020a038216600090815260208190526040902080548201905560019291505056fea165627a7a72305820f8e05f31a4dcc0d5250c5dd4758523c3a73a12b368afa3711fd759e68a239eba0029",
  "source": "pragma solidity ^0.5.0;\r\n\r\ncontract BJToken {\r\n\r\n    string public constant name = \"bjToken\";\r\n    string public constant symbol = \"BJ\";\r\n    // string public constant decimal = 0;\r\n    // uint256 public totalSupply;\r\n\r\n    event Transfer(\r\n        address indexed _from,\r\n        address indexed _to,\r\n        uint256 _value\r\n    );\r\n\r\n    event Approval(\r\n        address indexed _owner,\r\n        address indexed _spender,\r\n        uint256 _value\r\n    );\r\n\r\n\r\n    mapping(address => uint256) public balanceOf;\r\n    mapping(address => mapping(address => uint256)) public allowance;\r\n\r\n    // constructor (uint256 _initialSupply) public {\r\n    //     balanceOf[msg.sender] = _initialSupply;\r\n    //     totalSupply = _initialSupply;\r\n    // }\r\n\r\n    // function transfer(address _to, uint256 _value) public returns (bool success) {\r\n    //     require(balanceOf[msg.sender] >= _value);\r\n\r\n    //     balanceOf[msg.sender] -= _value;\r\n    //     balanceOf[_to] += _value;\r\n\r\n    //     emit Transfer(msg.sender, _to, _value);\r\n\r\n    //     return true;\r\n    // }\r\n\r\n    function addAmount(address _to, uint256 _amount) public returns (bool success) {\r\n        balanceOf[_to] += _amount;\r\n        return true;\r\n    }\r\n\r\n    function deductAmount(address _to, uint256 _amount) public returns (bool success) {\r\n        require(balanceOf[_to] >= _amount);\r\n        balanceOf[_to] -= _amount;\r\n        return true;\r\n    }\r\n\r\n    function approve(address _spender, uint256 _value) public returns (bool success) {\r\n        allowance[msg.sender][_spender] = _value;\r\n\r\n        emit Approval(msg.sender, _spender, _value);\r\n\r\n        return true;\r\n    }\r\n\r\n    function transferFrom(address _from, address _to, uint256 _value) public returns (bool success) {\r\n        require(_value <= balanceOf[_from]);\r\n        require(_value <= allowance[_from][msg.sender]);\r\n\r\n        balanceOf[_from] -= _value;\r\n        balanceOf[_to] += _value;\r\n\r\n        allowance[_from][msg.sender] -= _value;\r\n\r\n        emit Transfer(_from, _to, _value);\r\n\r\n        return true;\r\n    }\r\n}",
  "sourcePath": "C:\\Users\\Sagie\\Desktop\\Desktop\\Courses\\Semester D\\Workshop in Smart Contracts - Solidity\\git-code\\bjEther\\contracts\\BJToken.sol",
  "compiler": {
    "name": "solc",
    "version": "0.5.0+commit.1d4f565a.Emscripten.clang"
  },
  "schemaVersion": "3.0.1",
  "updatedAt": "2021-08-11T13:48:13.434Z",
  "devdoc": {
    "methods": {}
  },
  "userdoc": {
    "methods": {}
  }
}