{
  "contractName": "BJTokenGame",
  "abi": [
    {
      "constant": true,
      "inputs": [],
      "name": "tokenContract",
      "outputs": [
        {
          "name": "",
          "type": "address"
        }
      ],
      "payable": false,
      "stateMutability": "view",
      "type": "function",
      "signature": "0x55a373d6"
    },
    {
      "constant": true,
      "inputs": [],
      "name": "tokenPrice",
      "outputs": [
        {
          "name": "",
          "type": "uint256"
        }
      ],
      "payable": false,
      "stateMutability": "view",
      "type": "function",
      "signature": "0x7ff9b596"
    },
    {
      "inputs": [
        {
          "name": "_tokenContract",
          "type": "address"
        },
        {
          "name": "_tokenPrice",
          "type": "uint256"
        }
      ],
      "payable": false,
      "stateMutability": "nonpayable",
      "type": "constructor",
      "signature": "constructor"
    },
    {
      "anonymous": false,
      "inputs": [
        {
          "indexed": false,
          "name": "_buyer",
          "type": "address"
        },
        {
          "indexed": false,
          "name": "_amount",
          "type": "uint256"
        }
      ],
      "name": "Sell",
      "type": "event",
      "signature": "0x5e5e995ce3133561afceaa51a9a154d5db228cd7525d34df5185582c18d3df09"
    },
    {
      "anonymous": false,
      "inputs": [
        {
          "indexed": false,
          "name": "_account",
          "type": "address"
        },
        {
          "indexed": false,
          "name": "_amount",
          "type": "uint256"
        }
      ],
      "name": "BalanceOf",
      "type": "event",
      "signature": "0x53fa2f1ab3ce356105837b2d33e4d9445d41050bf57eca18817186e0242a08a9"
    },
    {
      "anonymous": false,
      "inputs": [
        {
          "indexed": false,
          "name": "_msg",
          "type": "string"
        }
      ],
      "name": "Alert",
      "type": "event",
      "signature": "0xb42f912d2a6c6c7da83228b8b84b12578ffa4267ec2980110bcf1f59c0832986"
    },
    {
      "anonymous": false,
      "inputs": [
        {
          "indexed": false,
          "name": "_user",
          "type": "string"
        },
        {
          "indexed": false,
          "name": "_newAmount",
          "type": "uint256"
        }
      ],
      "name": "SetAmount",
      "type": "event",
      "signature": "0xbddac1178984c0b19fc7c85ab816b7d96982ca64ca3f533c1d057350cdc24d9b"
    },
    {
      "anonymous": false,
      "inputs": [
        {
          "indexed": false,
          "name": "_id",
          "type": "string"
        },
        {
          "indexed": false,
          "name": "_newText",
          "type": "string"
        }
      ],
      "name": "ChangeHTMLText",
      "type": "event",
      "signature": "0x89b36a4f20a8a61ef3f4b26bba154d5ff87ed00f15e6fa2712b370e0d394a6a5"
    },
    {
      "anonymous": false,
      "inputs": [
        {
          "indexed": false,
          "name": "_user",
          "type": "string"
        },
        {
          "indexed": false,
          "name": "_index",
          "type": "uint256"
        },
        {
          "indexed": false,
          "name": "_suit",
          "type": "string"
        },
        {
          "indexed": false,
          "name": "_value",
          "type": "string"
        }
      ],
      "name": "PlaceCard",
      "type": "event",
      "signature": "0x1d9def06989d0fdde56f34a9839a90f6e3af054b423734c77af19bc0f5353508"
    },
    {
      "constant": false,
      "inputs": [
        {
          "name": "_numberOfTokens",
          "type": "uint256"
        }
      ],
      "name": "buyTokens",
      "outputs": [],
      "payable": true,
      "stateMutability": "payable",
      "type": "function",
      "signature": "0x3610724e"
    },
    {
      "constant": false,
      "inputs": [
        {
          "name": "_numberOfTokens",
          "type": "uint256"
        }
      ],
      "name": "withdraw",
      "outputs": [],
      "payable": false,
      "stateMutability": "nonpayable",
      "type": "function",
      "signature": "0x2e1a7d4d"
    },
    {
      "constant": false,
      "inputs": [],
      "name": "refreshBalance",
      "outputs": [],
      "payable": false,
      "stateMutability": "nonpayable",
      "type": "function",
      "signature": "0x004e1944"
    },
    {
      "constant": false,
      "inputs": [],
      "name": "checkIfPlayerTurn",
      "outputs": [
        {
          "name": "",
          "type": "bool"
        }
      ],
      "payable": false,
      "stateMutability": "nonpayable",
      "type": "function",
      "signature": "0x122e2658"
    },
    {
      "constant": false,
      "inputs": [],
      "name": "hitHTML",
      "outputs": [],
      "payable": false,
      "stateMutability": "nonpayable",
      "type": "function",
      "signature": "0x4fd4c2c7"
    },
    {
      "constant": false,
      "inputs": [],
      "name": "standHTML",
      "outputs": [],
      "payable": false,
      "stateMutability": "nonpayable",
      "type": "function",
      "signature": "0xdf271f65"
    },
    {
      "constant": false,
      "inputs": [],
      "name": "singleGame",
      "outputs": [],
      "payable": false,
      "stateMutability": "nonpayable",
      "type": "function",
      "signature": "0x47fe75e5"
    }
  ],
  "bytecode": "0x60036101008181527fe299a000000000000000000000000000000000000000000000000000000000006101205260809081526101408281527fe299a200000000000000000000000000000000000000000000000000000000006101605260a0526101808281527fe299a700000000000000000000000000000000000000000000000000000000006101a05260c0526102006040526101c08281527fe299a500000000000000000000000000000000000000000000000000000000006101e05260e052620000cf9190600462000781565b50604080516101e08101825260016101a082018181527f41000000000000000000000000000000000000000000000000000000000000006101c08401528252825180840184528181527f320000000000000000000000000000000000000000000000000000000000000060208281019190915280840191909152835180850185528281527f33000000000000000000000000000000000000000000000000000000000000008183015283850152835180850185528281527f3400000000000000000000000000000000000000000000000000000000000000818301526060840152835180850185528281527f3500000000000000000000000000000000000000000000000000000000000000818301526080840152835180850185528281527f36000000000000000000000000000000000000000000000000000000000000008183015260a0840152835180850185528281527f37000000000000000000000000000000000000000000000000000000000000008183015260c0840152835180850185528281527f38000000000000000000000000000000000000000000000000000000000000008183015260e0840152835180850185528281527f39000000000000000000000000000000000000000000000000000000000000008183015261010084015283518085018552600281527f313000000000000000000000000000000000000000000000000000000000000081830152610120840152835180850185528281527f4a0000000000000000000000000000000000000000000000000000000000000081830152610140840152835180850185528281527f51000000000000000000000000000000000000000000000000000000000000008183015261016084015283518085019094529083527f4b00000000000000000000000000000000000000000000000000000000000000908301526101808101919091526200039e90600790600d620007d8565b50607e805461ffff191690556016607f556011608055348015620003c157600080fd5b506040516040806200286d83398101806040526040811015620003e357600080fd5b5080516020909101516000805433600160a060020a03199182161790915560018054909116600160a060020a03841617905560028190556200042d64010000000062000435810204565b505062000931565b604080517f410000000000000000000000000000000000000000000000000000000000000081526014600180830182905283519283900360219081018420600b90557f32000000000000000000000000000000000000000000000000000000000000008452838201839052845193849003810184206002908190557f3300000000000000000000000000000000000000000000000000000000000000855284830184905285519485900382018520600390557f3400000000000000000000000000000000000000000000000000000000000000855284830184905285519485900382018520600490557f3500000000000000000000000000000000000000000000000000000000000000855284830184905285519485900382018520600590557f36000000000000000000000000000000000000000000000000000000000000008552848301849052855194859003820185206006908190557f3700000000000000000000000000000000000000000000000000000000000000865285840185905286519586900383018620600790557f3800000000000000000000000000000000000000000000000000000000000000865285840185905286519586900383018620600890557f3900000000000000000000000000000000000000000000000000000000000000865285840185905286519586900383018620600990557f313000000000000000000000000000000000000000000000000000000000000086529085018490528551948590036022018520600a908190557f4a000000000000000000000000000000000000000000000000000000000000008652858401859052865195869003830186208190557f51000000000000000000000000000000000000000000000000000000000000008652858401859052865195869003830186208190557f4b000000000000000000000000000000000000000000000000000000000000008652858401949094528551948590039091018420929092557f506c6179657200000000000000000000000000000000000000000000000000008352601583830181905284519384900360269081018520600090557f4465616c6572000000000000000000000000000000000000000000000000000085529284015292519182900301902055565b8260048101928215620007c6579160200282015b82811115620007c65782518051620007b59184916020909101906200081d565b509160200191906001019062000795565b50620007d49291506200089e565b5090565b82600d8101928215620007c6579160200282015b82811115620007c657825180516200080c9184916020909101906200081d565b5091602001919060010190620007ec565b828054600181600116156101000203166002900490600052602060002090601f016020900481019282601f106200086057805160ff191683800117855562000890565b8280016001018555821562000890579182015b828111156200089057825182559160200191906001019062000873565b50620007d4929150620008c9565b620008c691905b80821115620007d4576000620008bc8282620008e6565b50600101620008a5565b90565b620008c691905b80821115620007d45760008155600101620008d0565b50805460018160011615610100020316600290046000825580601f106200090e57506200092e565b601f0160209004906000526020600020908101906200092e9190620008c9565b50565b611f2c80620009416000396000f3fe6080604052600436106100975763ffffffff7c01000000000000000000000000000000000000000000000000000000006000350416624e1944811461009c578063122e2658146100b35780632e1a7d4d146100dc5780633610724e1461010657806347fe75e5146101235780634fd4c2c71461013857806355a373d61461014d5780637ff9b5961461017e578063df271f65146101a5575b600080fd5b3480156100a857600080fd5b506100b16101ba565b005b3480156100bf57600080fd5b506100c8610279565b604080519115158252519081900360200190f35b3480156100e857600080fd5b506100b1600480360360208110156100ff57600080fd5b503561034a565b6100b16004803603602081101561011c57600080fd5b5035610565565b34801561012f57600080fd5b506100b16105f6565b34801561014457600080fd5b506100b16106fb565b34801561015957600080fd5b506101626107ba565b60408051600160a060020a039092168252519081900360200190f35b34801561018a57600080fd5b506101936107c9565b60408051918252519081900360200190f35b3480156101b157600080fd5b506100b16107cf565b6001546040805160e060020a6370a08231028152336004820181905291517f53fa2f1ab3ce356105837b2d33e4d9445d41050bf57eca18817186e0242a08a993600160a060020a0316916370a08231916024808301926020929190829003018186803b15801561022957600080fd5b505afa15801561023d573d6000803e3d6000fd5b505050506040513d602081101561025357600080fd5b505160408051600160a060020a03909316835260208301919091528051918290030190a1565b607e5460009060ff16151561034357607e54610100900460ff1615156102ec57604080516020808252601a908201527f507265737320274e65772047616d652720746f20737461727421000000000000818301529051600080516020611ea18339815191529181900360600190a161033b565b6040805160208082526014908201527f4974206973206e6f7420796f7572207475726e21000000000000000000000000818301529051600080516020611ea18339815191529181900360600190a15b506000610347565b5060015b90565b6000811161035757600080fd5b6001546040805160e060020a6370a0823102815233600482015290518392600160a060020a0316916370a08231916024808301926020929190829003018186803b1580156103a457600080fd5b505afa1580156103b8573d6000803e3d6000fd5b505050506040513d60208110156103ce57600080fd5b505110156103db57600080fd5b6002546040513391830280156108fc02916000818181858888f1935050505015801561040b573d6000803e3d6000fd5b50600154604080517fb126d0e9000000000000000000000000000000000000000000000000000000008152336004820152602481018490529051600160a060020a039092169163b126d0e9916044808201926020929091908290030181600087803b15801561047957600080fd5b505af115801561048d573d6000803e3d6000fd5b505050506040513d60208110156104a357600080fd5b50506001546040805160e060020a6370a08231028152336004820181905291517f53fa2f1ab3ce356105837b2d33e4d9445d41050bf57eca18817186e0242a08a993600160a060020a0316916370a08231916024808301926020929190829003018186803b15801561051457600080fd5b505afa158015610528573d6000803e3d6000fd5b505050506040513d602081101561053e57600080fd5b505160408051600160a060020a03909316835260208301919091528051918290030190a150565b6000341161057257600080fd5b61057e81600254610885565b341461058957600080fd5b600154604080517f6039fbdb000000000000000000000000000000000000000000000000000000008152336004820152602481018490529051600160a060020a0390921691636039fbdb916044808201926020929091908290030181600087803b15801561047957600080fd5b6001546040805160e060020a6370a082310281523360048201529051600092600160a060020a0316916370a08231916024808301926020929190829003018186803b15801561064457600080fd5b505afa158015610658573d6000803e3d6000fd5b505050506040513d602081101561066e57600080fd5b5051116106c8576040805160208082526013908201527f4e6f7420656e6f7567682062616c616e63652100000000000000000000000000818301529051600080516020611ea18339815191529181900360600190a16106f9565b6106d06108b3565b6106d8610b1b565b6106e0610d73565b607e805460ff1961ff0019909116610100171660011790555b565b610703610279565b151561070e576106f9565b61073a604080519081016040528060068152602001600080516020611ee1833981519152815250610f28565b156106f9576040805181815260038183015260e860020a626d73670260608201526080602082018190526019908201527f506c6179657220627573742e204445414c45522057494e53210000000000000060a08201529051600080516020611ec18339815191529181900360c00190a16107b26110a3565b6106f96111ab565b600154600160a060020a031681565b60025481565b6107d7610279565b15156107e2576106f9565b607e805460ff191690556040805181815260038183015260e860020a626d73670260608201526080602082018190526024908201527f4e6f77207761697420666f7220746865206465616c657220746f2066696e697360a08201527f682e2e2e0000000000000000000000000000000000000000000000000000000060c08201529051600080516020611ec18339815191529181900360e00190a16107b26111b8565b60008115806108a257505080820282828281151561089f57fe5b04145b15156108ad57600080fd5b92915050565b60005b6103e8811015610b1857600060346108cc6114b3565b8115156108d557fe5b069050600060346108e46114b3565b8115156108ed57fe5b0690506108f8611d49565b6016836034811061090557fe5b60408051600292830293909301805460606020601f600019610100600186161502019093169590950491820185900490940285018401835291840182815290928492849184018282801561099a5780601f1061096f5761010080835404028352916020019161099a565b820191906000526020600020905b81548152906001019060200180831161097d57829003601f168201915b50505050508152602001600182018054600181600116156101000203166002900480601f016020809104026020016040519081016040528092919081815260200182805460018160011615610100020316600290048015610a3c5780601f10610a1157610100808354040283529160200191610a3c565b820191906000526020600020905b815481529060010190602001808311610a1f57829003601f168201915b5050505050815250509050601682603481101515610a5657fe5b6002020160168460348110610a6757fe5b6002020160008201816000019080546001816001161561010002031660029004610a92929190611d60565b5060018201816001019080546001816001161561010002031660029004610aba929190611d60565b50829150601690508360348110610acd57fe5b600202016000820151816000019080519060200190610aed929190611de5565b506020828101518051610b069260018501920190611de5565b5050600190940193506108b692505050565b50565b60015b60408051600080516020611ee183398151915281526015600682015290519081900360260190205460819060028110610b5357fe5b0154811015610c1157604080516020810183905260808082526001908201527f700000000000000000000000000000000000000000000000000000000000000060a082015260c08183018190526006908201527f72656d6f7665000000000000000000000000000000000000000000000000000060e08201526101006060820181905260009082015290517f1d9def06989d0fdde56f34a9839a90f6e3af054b423734c77af19bc0f5353508918190036101400190a1600101610b1e565b5060015b6040805160d160020a652232b0b632b90281526015600682015290519081900360260190205460819060028110610c4857fe5b0154811015610d0657604080516020810183905260808082526001908201527f640000000000000000000000000000000000000000000000000000000000000060a082015260c08183018190526006908201527f72656d6f7665000000000000000000000000000000000000000000000000000060e08201526101006060820181905260009082015290517f1d9def06989d0fdde56f34a9839a90f6e3af054b423734c77af19bc0f5353508918190036101400190a1600101610c15565b506040805181815260038183015260e860020a626d736702606082015260806020808301829052908201527f507265737320274e65772047616d652720746f20737461727420616761696e2160a08201529051600080516020611ec18339815191529181900360c00190a1565b6040805180820190915260018082526020820152610d95906081906002611e53565b506040805180820190915260008082526020820152610db8906083906002611e53565b506040805180820190915260008082526020820152610ddb906085906002611e53565b50610e0a604080519081016040528060068152602001600080516020611ee183398151915281525060006114f5565b610e3660408051908101604052806006815260200160d160020a652232b0b632b90281525060006114f5565b610e6060408051908101604052806006815260200160d160020a652232b0b632b902815250610f28565b50610e8d604080519081016040528060068152602001600080516020611ee1833981519152815250610f28565b50610eba604080519081016040528060068152602001600080516020611ee1833981519152815250610f28565b506040805181815260038183015260e860020a626d73670260608201526080602082018190526014908201527f596f75206d617920484954206f72205354414e4400000000000000000000000060a08201529051600080516020611ec18339815191529181900360c00190a1565b60006034608754101515610f8c57604080516020808252600a908201527f656d707479206465636b00000000000000000000000000000000000000000000818301529051600080516020611ea18339815191529181900360600190a150600061109e565b610f94611d49565b610f9c61160d565b9050610fa88382611772565b601481600001516040518082805190602001908083835b60208310610fde5780518252601f199092019160209182019101610fbf565b51815160209384036101000a6000190180199092169116179052920194855250604051938490030190922054600b1415915061108c90505760856015846040518082805190602001908083835b6020831061104a5780518252601f19909201916020918201910161102b565b51815160209384036101000a60001901801990921691161790529201948552506040519384900301909220549150506002811061108357fe5b01805460010190555b61109a83607f546000611a47565b9150505b919050565b60018054604080517fb126d0e9000000000000000000000000000000000000000000000000000000008152336004820152602481019390935251600160a060020a039091169163b126d0e99160448083019260209291908290030181600087803b15801561111057600080fd5b505af1158015611124573d6000803e3d6000fd5b505050506040513d602081101561113a57600080fd5b50506001546040805160e060020a6370a08231028152336004820181905291517f53fa2f1ab3ce356105837b2d33e4d9445d41050bf57eca18817186e0242a08a993600160a060020a0316916370a08231916024808301926020929190829003018186803b15801561022957600080fd5b607e805461ffff19169055565b6111e760408051908101604052806006815260200160d160020a652232b0b632b9028152506080546001611a47565b151561121d5761121760408051908101604052806006815260200160d160020a652232b0b632b902815250610f28565b506111b8565b61124c60408051908101604052806006815260200160d160020a652232b0b632b902815250607f546000611a47565b156112c9576040805181815260038183015260e860020a626d73670260608201526080602082018190526019908201527f4465616c657220627573742e20504c415945522057494e53210000000000000060a08201529051600080516020611ec18339815191529181900360c00190a16112c4611bd7565b6106f9565b60408051600080516020611ee18339815191528152601560068201529051908190036026019020546000906083906002811061130157fe5b01546040805160d160020a652232b0b632b9028152601560068201529051908190036026019020549091506000906083906002811061133c57fe5b01549050808214156113ba576040805181815260038183015260e860020a626d7367026060820152608060208201819052600b908201527f497427732061207469652100000000000000000000000000000000000000000060a08201529051600080516020611ec18339815191529181900360c00190a150506106f9565b8082111561143c576040805181815260038183015260e860020a626d7367026060820152608060208201819052600c908201527f504c415945522057494e5321000000000000000000000000000000000000000060a08201529051600080516020611ec18339815191529181900360c00190a1611435611bd7565b50506106f9565b6040805181815260038183015260e860020a626d7367026060820152608060208201819052600c908201527f4445414c45522057494e5321000000000000000000000000000000000000000060a08201529051600080516020611ec18339815191529181900360c00190a16114af6110a3565b5050565b604080514460208083019190915242828401526c0100000000000000000000000033026060830152825160548184030181526074909201909252805191012090565b8060836015846040518082805190602001908083835b6020831061152a5780518252601f19909201916020918201910161150b565b51815160209384036101000a60001901801990921691161790529201948552506040519384900301909220549150506002811061156357fe5b01819055507fbddac1178984c0b19fc7c85ab816b7d96982ca64ca3f533c1d057350cdc24d9b82826040518080602001838152602001828103825284818151815260200191508051906020019080838360005b838110156115ce5781810151838201526020016115b6565b50505050905090810190601f1680156115fb5780820380516001836020036101000a031916815260200191505b50935050505060405180910390a15050565b611615611d49565b60878054600181019091556016906034811061162d57fe5b60408051600292830293909301805460606020601f60001961010060018616150201909316959095049182018590049094028501840183529184018281529092849284918401828280156116c25780601f10611697576101008083540402835291602001916116c2565b820191906000526020600020905b8154815290600101906020018083116116a557829003601f168201915b50505050508152602001600182018054600181600116156101000203166002900480601f0160208091040260200160405190810160405280929190818152602001828054600181600116156101000203166002900480156117645780601f1061173957610100808354040283529160200191611764565b820191906000526020600020905b81548152906001019060200180831161174757829003601f168201915b505050505081525050905090565b600060816015846040518082805190602001908083835b602083106117a85780518252601f199092019160209182019101611789565b51815160209384036101000a6000190180199092169116179052920194855250604051938490030190922054915050600281106117e157fe5b015490507f1d9def06989d0fdde56f34a9839a90f6e3af054b423734c77af19bc0f535350883828460200151856000015160405180806020018581526020018060200180602001848103845288818151815260200191508051906020019080838360005b8381101561185d578181015183820152602001611845565b50505050905090810190601f16801561188a5780820380516001836020036101000a031916815260200191505b50848103835286518152865160209182019188019080838360005b838110156118bd5781810151838201526020016118a5565b50505050905090810190601f1680156118ea5780820380516001836020036101000a031916815260200191505b50848103825285518152855160209182019187019080838360005b8381101561191d578181015183820152602001611905565b50505050905090810190601f16801561194a5780820380516001836020036101000a031916815260200191505b5097505050505050505060405180910390a16119cd83601484600001516040518082805190602001908083835b602083106119965780518252601f199092019160209182019101611977565b51815160209384036101000a6000190180199092169116179052920194855250604051938490030190922054915060009050611c44565b60816015846040518082805190602001908083835b60208310611a015780518252601f1990920191602091820191016119e2565b51815160209384036101000a600019018019909216911617905292019485525060405193849003019092205491505060028110611a3a57fe5b0180546001019055505050565b60005b8260836015866040518082805190602001908083835b60208310611a7f5780518252601f199092019160209182019101611a60565b51815160209384036101000a600019018019909216911617905292019485525060405193849003019092205491505060028110611ab857fe5b015410611bcc5760856015856040518082805190602001908083835b60208310611af35780518252601f199092019160209182019101611ad4565b51815160209384036101000a600019018019909216911617905292019485525060405193849003019092205491505060028110611b2c57fe5b01541580611b375750815b15611b4457506001611bd0565b60856015856040518082805190602001908083835b60208310611b785780518252601f199092019160209182019101611b59565b51815160209384036101000a600019018019909216911617905292019485525060405193849003019092205491505060028110611bb157fe5b018054600019019055611bc784600a6001611c44565b611a4a565b5060005b9392505050565b60018054604080517f6039fbdb000000000000000000000000000000000000000000000000000000008152336004820152602481019390935251600160a060020a0390911691636039fbdb9160448083019260209291908290030181600087803b15801561111057600080fd5b6000811515611cc5578260836015866040518082805190602001908083835b60208310611c825780518252601f199092019160209182019101611c63565b51815160209384036101000a600019018019909216911617905292019485525060405193849003019092205491505060028110611cbb57fe5b0154019050611d39565b8260836015866040518082805190602001908083835b60208310611cfa5780518252601f199092019160209182019101611cdb565b51815160209384036101000a600019018019909216911617905292019485525060405193849003019092205491505060028110611d3357fe5b01540390505b611d4384826114f5565b50505050565b604080518082019091526060808252602082015290565b828054600181600116156101000203166002900490600052602060002090601f016020900481019282601f10611d995780548555611dd5565b82800160010185558215611dd557600052602060002091601f016020900482015b82811115611dd5578254825591600101919060010190611dba565b50611de1929150611e86565b5090565b828054600181600116156101000203166002900490600052602060002090601f016020900481019282601f10611e2657805160ff1916838001178555611dd5565b82800160010185558215611dd5579182015b82811115611dd5578251825591602001919060010190611e38565b8260028101928215611dd5579160200282015b82811115611dd5578251829060ff16905591602001919060010190611e66565b61034791905b80821115611de15760008155600101611e8c56feb42f912d2a6c6c7da83228b8b84b12578ffa4267ec2980110bcf1f59c083298689b36a4f20a8a61ef3f4b26bba154d5ff87ed00f15e6fa2712b370e0d394a6a5506c617965720000000000000000000000000000000000000000000000000000a165627a7a723058202a404425ffc64b17088ea97cbd0aaff796736aa044ac3138a21023014bc02ac20029",
  "source": "pragma solidity ^0.5.0;\r\n\r\nimport \"./BJToken.sol\";\r\n\r\ncontract BJTokenGame {\r\n    address admin;\r\n    BJToken public tokenContract;\r\n    uint256 public tokenPrice;\r\n\r\n    event Sell(address _buyer, uint256 _amount);\r\n    event BalanceOf(address _account, uint256 _amount);\r\n\r\n    constructor (BJToken _tokenContract, uint256 _tokenPrice) public {\r\n        admin = msg.sender;\r\n        tokenContract = _tokenContract;\r\n        tokenPrice = _tokenPrice;\r\n        initMaps();\r\n        // initDeck();\r\n    }\r\n\r\n    function multiply(uint x, uint y) internal pure returns (uint z) {\r\n        require(y == 0 || (z = x * y) / y == x);\r\n    }\r\n\r\n    function buyTokens(uint256 _numberOfTokens) public payable {\r\n        require(msg.value > 0);\r\n        require(msg.value == multiply(_numberOfTokens, tokenPrice));\r\n        \r\n        tokenContract.addTokens(msg.sender, _numberOfTokens);\r\n\r\n        emit BalanceOf(msg.sender, tokenContract.balanceOf(msg.sender));\r\n    }\r\n\r\n    function withdraw(uint256 _numberOfTokens) public {\r\n        require(_numberOfTokens > 0);\r\n        require(tokenContract.balanceOf(msg.sender) >= _numberOfTokens);\r\n\r\n        msg.sender.transfer(_numberOfTokens * tokenPrice);\r\n\r\n        tokenContract.deductTokens(msg.sender, _numberOfTokens);\r\n\r\n        emit BalanceOf(msg.sender, tokenContract.balanceOf(msg.sender));\r\n    }\r\n\r\n    function refreshBalance() public {\r\n        emit BalanceOf(msg.sender, tokenContract.balanceOf(msg.sender));\r\n    }\r\n\r\n\r\n    //-------------------------------- Game Logic ----------------------------------------------\r\n\r\n    function random() private view returns (uint) {\r\n        // sha3 and now have been deprecated\r\n        return uint(keccak256(abi.encodePacked(block.difficulty, block.timestamp, msg.sender)));\r\n        // convert hash to integer\r\n        // players is an array of entrants\r\n        \r\n    }\r\n\r\n    event Alert(string _msg);\r\n    event SetAmount(string _user, uint _newAmount);\r\n    event ChangeHTMLText(string _id, string _newText);\r\n    event PlaceCard(string _user, uint _index, string _suit, string _value);\r\n\r\n    string[4] suits = [\"\\u2660\", \"\\u2662\", \"\\u2667\", \"\\u2665\"];\r\n    string[13] values = [\"A\", \"2\", \"3\", \"4\", \"5\", \"6\", \"7\", \"8\", \"9\", \"10\", \"J\", \"Q\", \"K\"];\r\n\r\n    mapping(string => uint) valuesToNumbers;\r\n    mapping(string => uint) userToIndex;\r\n\r\n    function initMaps() private {\r\n\r\n        valuesToNumbers[\"A\"] = 11;\r\n        valuesToNumbers[\"2\"] = 2;\r\n        valuesToNumbers[\"3\"] = 3;\r\n        valuesToNumbers[\"4\"] = 4;\r\n        valuesToNumbers[\"5\"] = 5;\r\n        valuesToNumbers[\"6\"] = 6;\r\n        valuesToNumbers[\"7\"] = 7;\r\n        valuesToNumbers[\"8\"] = 8;\r\n        valuesToNumbers[\"9\"] = 9;\r\n        valuesToNumbers[\"10\"] = 10;\r\n        valuesToNumbers[\"J\"] = 10;\r\n        valuesToNumbers[\"Q\"] = 10;\r\n        valuesToNumbers[\"K\"] = 10;\r\n\r\n        userToIndex[\"Player\"] = 0;\r\n        userToIndex[\"Dealer\"] = 1;\r\n    }\r\n\r\n    struct Card {\r\n        string value;\r\n        string suit;\r\n    }\r\n\r\n    Card[52] deck;\r\n\r\n    bool playerTurn = false;        // indicates whether the player can hit or stand\r\n    bool inGame = false;            // indicates whether the player is currently in game\r\n    uint BUSTLIMIT = 22;\r\n    uint DEALLIMIT = 17;\r\n\r\n    uint[2] indexInTable;\r\n    uint[2] amount;\r\n    uint[2] countAces;\r\n\r\n    uint indexInDeck;\r\n\r\n    function initDeck() private {\r\n        uint index = 0;\r\n\r\n        for(uint i = 0; i < values.length; i++) {\r\n            for(uint j = 0; j < suits.length; j++) {\r\n                Card memory card = Card(values[i], suits[j]);\r\n                deck[index] = card;\r\n                index++;\r\n            }\r\n        }\r\n        indexInDeck = 0;\r\n    }\r\n\r\n    function setAmount(string memory user, uint newAmount) private {\r\n        amount[userToIndex[user]] = newAmount;\r\n        emit SetAmount(user, newAmount);\r\n    }\r\n\r\n    function addAmount(string memory user, uint adding, bool minus) private {\r\n        uint ret = 0;\r\n        if (!minus) {\r\n            ret = amount[userToIndex[user]] + adding;\r\n        } else {\r\n            ret = amount[userToIndex[user]] - adding;\r\n        }\r\n        \r\n        setAmount(user, ret);\r\n    }\r\n\r\n    function popDeck() private returns (Card memory) {\r\n        indexInDeck++;\r\n        return deck[indexInDeck - 1];\r\n    }\r\n    \r\n    function placeCard(string memory user, Card memory card) private {\r\n        uint index = indexInTable[userToIndex[user]];\r\n        emit PlaceCard(user, index, card.suit, card.value);\r\n        addAmount(user, valuesToNumbers[card.value], false);\r\n        indexInTable[userToIndex[user]]++;\r\n    }\r\n\r\n\r\n    function shuffle() private {\r\n        for (uint i = 0; i < 1000; i++) {\r\n            uint location1 = random() % deck.length;\r\n            uint location2 = random() % deck.length;\r\n            Card memory tmp = deck[location1];\r\n\r\n            deck[location1] = deck[location2];\r\n            deck[location2] = tmp;\r\n        }\r\n    }\r\n\r\n    function checkIfPlayerTurn() public returns(bool) {\r\n        if (!playerTurn) {\r\n            if (!inGame) {\r\n                emit Alert(\"Press \\'New Game\\' to start!\");\r\n            } else {\r\n                emit Alert(\"It is not your turn!\");\r\n            }\r\n            return false;\r\n        }\r\n        return true;\r\n    }\r\n\r\n    function hitHTML() public {\r\n        if (!checkIfPlayerTurn()) {\r\n            return;\r\n        }\r\n        if (hitJS(\"Player\")) {\r\n            emit ChangeHTMLText(\"msg\", \"Player bust. DEALER WINS!\");\r\n            dealerWin();\r\n            endGame();\r\n        }\r\n    }\r\n\r\n    function hitJS(string memory user) private returns (bool) {\r\n        //opens the top card of the deck\r\n        if (indexInDeck >= deck.length) {\r\n            emit Alert(\"empty deck\");\r\n            return false;\r\n        }\r\n        Card memory card = popDeck();\r\n        placeCard(user, card);\r\n        if (valuesToNumbers[card.value] == 11) {\r\n            countAces[userToIndex[user]]++;\r\n        }\r\n\r\n        return isAbove(user, BUSTLIMIT, false);\r\n\r\n    }\r\n\r\n    function standHTML() public {\r\n        if (!checkIfPlayerTurn()) {\r\n            return;\r\n        }\r\n        playerTurn = false;\r\n        emit ChangeHTMLText(\"msg\", \"Now wait for the dealer to finish...\");\r\n        runDealer();\r\n        endGame();\r\n    }\r\n\r\n    function runDealer() private {\r\n        while (!isAbove(\"Dealer\", DEALLIMIT, true)) {\r\n            hitJS(\"Dealer\");\r\n        }\r\n\r\n        if (isAbove(\"Dealer\", BUSTLIMIT, false)) {\r\n            emit ChangeHTMLText(\"msg\", \"Dealer bust. PLAYER WINS!\");\r\n            playerWin();\r\n            return;\r\n        }\r\n\r\n        uint playerAmount = amount[userToIndex[\"Player\"]];\r\n        uint dealerAmount = amount[userToIndex[\"Dealer\"]];\r\n\r\n        if (playerAmount == dealerAmount) {\r\n            emit ChangeHTMLText(\"msg\", \"It's a tie!\");\r\n            return;\r\n        }\r\n\r\n        if (playerAmount > dealerAmount) {\r\n            emit ChangeHTMLText(\"msg\", \"PLAYER WINS!\");\r\n            playerWin();\r\n            return;\r\n        }\r\n\r\n        emit ChangeHTMLText(\"msg\", \"DEALER WINS!\");\r\n        dealerWin();\r\n    }\r\n\r\n    function isAbove(string memory user, uint limit, bool deal) private returns(bool) {\r\n        // returns whether we have passed the limit\r\n        \r\n        while (amount[userToIndex[user]] >= limit) {\r\n            if ((countAces[userToIndex[user]] == 0) || deal) {\r\n                return true;\r\n            }\r\n            //wait 1 second\r\n            countAces[userToIndex[user]]--;\r\n            addAmount(user, 10, true);\r\n\r\n        }\r\n        \r\n        return false;\r\n    }   \r\n\r\n    function playerWin() private {\r\n        tokenContract.addTokens(msg.sender, 1);\r\n        emit BalanceOf(msg.sender, tokenContract.balanceOf(msg.sender));\r\n    }\r\n\r\n\r\n    function dealerWin() private {\r\n        tokenContract.deductTokens(msg.sender, 1);\r\n        emit BalanceOf(msg.sender, tokenContract.balanceOf(msg.sender));\r\n    }\r\n\r\n    function cleanTable() private {\r\n        // clean: all the cards\r\n        for (uint i = 1; i < indexInTable[userToIndex[\"Player\"]]; i++) {\r\n            emit PlaceCard(\"p\", i, \"remove\", \"\");\r\n        }\r\n        for (uint i = 1; i < indexInTable[userToIndex[\"Dealer\"]]; i++){\r\n            emit PlaceCard(\"d\", i, \"remove\", \"\");\r\n        }\r\n\r\n        emit ChangeHTMLText(\"msg\", \"Press \\'New Game\\' to start again!\");\r\n    }\r\n\r\n    function endGame() private {\r\n        playerTurn = false;\r\n        inGame = false;\r\n    }\r\n\r\n    function gameSetup() private {\r\n        indexInTable = [1, 1];\r\n        amount = [0, 0];\r\n        countAces = [0, 0];\r\n        setAmount(\"Player\", 0);\r\n        setAmount(\"Dealer\", 0);\r\n        hitJS(\"Dealer\");\r\n        hitJS(\"Player\");\r\n        hitJS(\"Player\");\r\n        emit ChangeHTMLText(\"msg\", \"You may HIT or STAND\");\r\n    }\r\n\r\n    function singleGame() public {\r\n        if (tokenContract.balanceOf(msg.sender) <= 0) {\r\n            emit Alert(\"Not enough balance!\");\r\n            return;\r\n        }\r\n        shuffle();\r\n        cleanTable();\r\n        gameSetup();\r\n        inGame = true;\r\n        playerTurn = true;\r\n    }\r\n}",
  "sourcePath": "C:/Users/Sagie/Desktop/Desktop/Courses/Semester D/Workshop in Smart Contracts - Solidity/git-code/bjEther/contracts/BJTokenGame.sol",
  "compiler": {
    "name": "solc",
    "version": "0.5.0+commit.1d4f565a.Emscripten.clang"
  },
  "schemaVersion": "3.0.1",
  "updatedAt": "2021-08-12T11:51:07.725Z",
  "devdoc": {
    "methods": {}
  },
  "userdoc": {
    "methods": {}
  }
}