{
  "contractName": "BJTokenGame",
  "abi": [
    {
      "constant": true,
      "inputs": [],
      "name": "tokenContract",
      "outputs": [
        {
          "name": "",
          "type": "address"
        }
      ],
      "payable": false,
      "stateMutability": "view",
      "type": "function",
      "signature": "0x55a373d6"
    },
    {
      "constant": true,
      "inputs": [],
      "name": "tokenPrice",
      "outputs": [
        {
          "name": "",
          "type": "uint256"
        }
      ],
      "payable": false,
      "stateMutability": "view",
      "type": "function",
      "signature": "0x7ff9b596"
    },
    {
      "inputs": [
        {
          "name": "_tokenContract",
          "type": "address"
        },
        {
          "name": "_tokenPrice",
          "type": "uint256"
        }
      ],
      "payable": false,
      "stateMutability": "nonpayable",
      "type": "constructor",
      "signature": "constructor"
    },
    {
      "anonymous": false,
      "inputs": [
        {
          "indexed": false,
          "name": "_buyer",
          "type": "address"
        },
        {
          "indexed": false,
          "name": "_amount",
          "type": "uint256"
        }
      ],
      "name": "Sell",
      "type": "event",
      "signature": "0x5e5e995ce3133561afceaa51a9a154d5db228cd7525d34df5185582c18d3df09"
    },
    {
      "anonymous": false,
      "inputs": [
        {
          "indexed": false,
          "name": "_account",
          "type": "address"
        },
        {
          "indexed": false,
          "name": "_amount",
          "type": "uint256"
        }
      ],
      "name": "BalanceOf",
      "type": "event",
      "signature": "0x53fa2f1ab3ce356105837b2d33e4d9445d41050bf57eca18817186e0242a08a9"
    },
    {
      "anonymous": false,
      "inputs": [
        {
          "indexed": false,
          "name": "_msg",
          "type": "string"
        }
      ],
      "name": "Alert",
      "type": "event",
      "signature": "0xb42f912d2a6c6c7da83228b8b84b12578ffa4267ec2980110bcf1f59c0832986"
    },
    {
      "anonymous": false,
      "inputs": [
        {
          "indexed": false,
          "name": "_user",
          "type": "string"
        },
        {
          "indexed": false,
          "name": "_newAmount",
          "type": "uint256"
        }
      ],
      "name": "SetAmount",
      "type": "event",
      "signature": "0xbddac1178984c0b19fc7c85ab816b7d96982ca64ca3f533c1d057350cdc24d9b"
    },
    {
      "anonymous": false,
      "inputs": [
        {
          "indexed": false,
          "name": "_id",
          "type": "string"
        },
        {
          "indexed": false,
          "name": "_newText",
          "type": "string"
        }
      ],
      "name": "ChangeHTMLText",
      "type": "event",
      "signature": "0x89b36a4f20a8a61ef3f4b26bba154d5ff87ed00f15e6fa2712b370e0d394a6a5"
    },
    {
      "anonymous": false,
      "inputs": [
        {
          "indexed": false,
          "name": "_user",
          "type": "string"
        },
        {
          "indexed": false,
          "name": "_index",
          "type": "uint256"
        },
        {
          "indexed": false,
          "name": "_suit",
          "type": "string"
        },
        {
          "indexed": false,
          "name": "_value",
          "type": "string"
        }
      ],
      "name": "PlaceCard",
      "type": "event",
      "signature": "0x1d9def06989d0fdde56f34a9839a90f6e3af054b423734c77af19bc0f5353508"
    },
    {
      "constant": false,
      "inputs": [
        {
          "name": "a",
          "type": "address"
        },
        {
          "name": "b",
          "type": "address"
        }
      ],
      "name": "compareAddresses",
      "outputs": [
        {
          "name": "",
          "type": "bool"
        }
      ],
      "payable": false,
      "stateMutability": "nonpayable",
      "type": "function",
      "signature": "0x7e06eb7d"
    },
    {
      "constant": false,
      "inputs": [
        {
          "name": "_numberOfTokens",
          "type": "uint256"
        }
      ],
      "name": "buyTokens",
      "outputs": [],
      "payable": true,
      "stateMutability": "payable",
      "type": "function",
      "signature": "0x3610724e"
    },
    {
      "constant": false,
      "inputs": [
        {
          "name": "_numberOfTokens",
          "type": "uint256"
        }
      ],
      "name": "withdraw",
      "outputs": [],
      "payable": false,
      "stateMutability": "nonpayable",
      "type": "function",
      "signature": "0x2e1a7d4d"
    },
    {
      "constant": false,
      "inputs": [],
      "name": "withdrawAll",
      "outputs": [],
      "payable": false,
      "stateMutability": "nonpayable",
      "type": "function",
      "signature": "0x853828b6"
    },
    {
      "constant": false,
      "inputs": [],
      "name": "refreshBalance",
      "outputs": [],
      "payable": false,
      "stateMutability": "nonpayable",
      "type": "function",
      "signature": "0x004e1944"
    },
    {
      "constant": false,
      "inputs": [],
      "name": "checkIfPlayerTurn",
      "outputs": [
        {
          "name": "",
          "type": "bool"
        }
      ],
      "payable": false,
      "stateMutability": "nonpayable",
      "type": "function",
      "signature": "0x122e2658"
    },
    {
      "constant": false,
      "inputs": [],
      "name": "hitHTML",
      "outputs": [],
      "payable": false,
      "stateMutability": "nonpayable",
      "type": "function",
      "signature": "0x4fd4c2c7"
    },
    {
      "constant": false,
      "inputs": [],
      "name": "standHTML",
      "outputs": [],
      "payable": false,
      "stateMutability": "nonpayable",
      "type": "function",
      "signature": "0xdf271f65"
    },
    {
      "constant": false,
      "inputs": [
        {
          "name": "betAmount",
          "type": "uint256"
        }
      ],
      "name": "singleGame",
      "outputs": [],
      "payable": false,
      "stateMutability": "nonpayable",
      "type": "function",
      "signature": "0x74291ec1"
    }
  ],
  "bytecode": "0x60036101008181527fe299a000000000000000000000000000000000000000000000000000000000006101205260809081526101408281527fe299a200000000000000000000000000000000000000000000000000000000006101605260a0526101808281527fe299a700000000000000000000000000000000000000000000000000000000006101a05260c0526102006040526101c09182527fe299a500000000000000000000000000000000000000000000000000000000006101e05260e091909152620000d490600590600462000984565b50604080516101e08101825260016101a082018181527f41000000000000000000000000000000000000000000000000000000000000006101c08401528252825180840184528181527f320000000000000000000000000000000000000000000000000000000000000060208281019190915280840191909152835180850185528281527f33000000000000000000000000000000000000000000000000000000000000008183015283850152835180850185528281527f3400000000000000000000000000000000000000000000000000000000000000818301526060840152835180850185528281527f3500000000000000000000000000000000000000000000000000000000000000818301526080840152835180850185528281527f36000000000000000000000000000000000000000000000000000000000000008183015260a0840152835180850185528281527f37000000000000000000000000000000000000000000000000000000000000008183015260c0840152835180850185528281527f38000000000000000000000000000000000000000000000000000000000000008183015260e0840152835180850185528281527f39000000000000000000000000000000000000000000000000000000000000008183015261010084015283518085018552600281527f313000000000000000000000000000000000000000000000000000000000000081830152610120840152835180850185528281527f4a0000000000000000000000000000000000000000000000000000000000000081830152610140840152835180850185528281527f51000000000000000000000000000000000000000000000000000000000000008183015261016084015283518085019094529083527f4b0000000000000000000000000000000000000000000000000000000000000090830152610180810191909152620003a390600990600d620009db565b506080805461ffff1916905560166081556011608255348015620003c657600080fd5b5060405160408062002c6283398101806040526040811015620003e857600080fd5b5080516020909101516000805433600160a060020a031991821617825560028054909116600160a060020a0385161790556003829055600455620004346401000000006200044f810204565b620004476401000000006200079b810204565b505062000b4b565b604080517f410000000000000000000000000000000000000000000000000000000000000081526016600180830182905283519283900360219081018420600b90557f32000000000000000000000000000000000000000000000000000000000000008452838201839052845193849003810184206002908190557f3300000000000000000000000000000000000000000000000000000000000000855284830184905285519485900382018520600390557f3400000000000000000000000000000000000000000000000000000000000000855284830184905285519485900382018520600490557f3500000000000000000000000000000000000000000000000000000000000000855284830184905285519485900382018520600590557f36000000000000000000000000000000000000000000000000000000000000008552848301849052855194859003820185206006908190557f3700000000000000000000000000000000000000000000000000000000000000865285840185905286519586900383018620600790557f3800000000000000000000000000000000000000000000000000000000000000865285840185905286519586900383018620600890557f3900000000000000000000000000000000000000000000000000000000000000865285840185905286519586900383018620600990557f313000000000000000000000000000000000000000000000000000000000000086529085018490528551948590036022018520600a908190557f4a000000000000000000000000000000000000000000000000000000000000008652858401859052865195869003830186208190557f51000000000000000000000000000000000000000000000000000000000000008652858401859052865195869003830186208190557f4b000000000000000000000000000000000000000000000000000000000000008652858401949094528551948590039091018420929092557f506c6179657200000000000000000000000000000000000000000000000000008352601783830181905284519384900360269081018520600090557f4465616c6572000000000000000000000000000000000000000000000000000085529284015292519182900301902055565b6000805b600d8110156200097b5760005b60048110156200097157620007c062000a20565b6040805180820190915280600985600d8110620007d957fe5b01805460408051602060026001851615610100026000190190941693909304601f81018490048402820184019092528181529291830182828015620008625780601f10620008365761010080835404028352916020019162000862565b820191906000526020600020905b8154815290600101906020018083116200084457829003601f168201915b5050509183525050602001600584600481106200087b57fe5b01805460408051602060026001851615610100026000190190941693909304601f81018490048402820184019092528181529291830182828015620009045780601f10620008d85761010080835404028352916020019162000904565b820191906000526020600020905b815481529060010190602001808311620008e657829003601f168201915b50505050508152509050806018856034811015156200091f57fe5b6002020160008201518160000190805190602001906200094192919062000a37565b5060208281015180516200095c926001850192019062000a37565b505050600193840193919091019050620007ac565b506001016200079f565b50506000608a55565b8260048101928215620009c9579160200282015b82811115620009c95782518051620009b891849160209091019062000a37565b509160200191906001019062000998565b50620009d792915062000ab8565b5090565b82600d8101928215620009c9579160200282015b82811115620009c9578251805162000a0f91849160209091019062000a37565b5091602001919060010190620009ef565b604080518082019091526060808252602082015290565b828054600181600116156101000203166002900490600052602060002090601f016020900481019282601f1062000a7a57805160ff191683800117855562000aaa565b8280016001018555821562000aaa579182015b8281111562000aaa57825182559160200191906001019062000a8d565b50620009d792915062000ae3565b62000ae091905b80821115620009d757600062000ad6828262000b00565b5060010162000abf565b90565b62000ae091905b80821115620009d7576000815560010162000aea565b50805460018160011615610100020316600290046000825580601f1062000b28575062000b48565b601f01602090049060005260206000209081019062000b48919062000ae3565b50565b6121078062000b5b6000396000f3fe6080604052600436106100ad5763ffffffff7c01000000000000000000000000000000000000000000000000000000006000350416624e194481146100b2578063122e2658146100c95780632e1a7d4d146100f25780633610724e1461011c5780634fd4c2c71461013957806355a373d61461014e57806374291ec11461017f5780637e06eb7d146101a95780637ff9b596146101e4578063853828b61461020b578063df271f6514610220575b600080fd5b3480156100be57600080fd5b506100c7610235565b005b3480156100d557600080fd5b506100de6102f4565b604080519115158252519081900360200190f35b3480156100fe57600080fd5b506100c76004803603602081101561011557600080fd5b50356103c5565b6100c76004803603602081101561013257600080fd5b5035610534565b34801561014557600080fd5b506100c7610601565b34801561015a57600080fd5b506101636106ba565b60408051600160a060020a039092168252519081900360200190f35b34801561018b57600080fd5b506100c7600480360360208110156101a257600080fd5b50356106c9565b3480156101b557600080fd5b506100de600480360360408110156101cc57600080fd5b50600160a060020a038135811691602001351661086d565b3480156101f057600080fd5b506101f96108a5565b60408051918252519081900360200190f35b34801561021757600080fd5b506100c76108ab565b34801561022c57600080fd5b506100c7610a2b565b6002546040805160e060020a6370a08231028152336004820181905291517f53fa2f1ab3ce356105837b2d33e4d9445d41050bf57eca18817186e0242a08a993600160a060020a0316916370a08231916024808301926020929190829003018186803b1580156102a457600080fd5b505afa1580156102b8573d6000803e3d6000fd5b505050506040513d60208110156102ce57600080fd5b505160408051600160a060020a03909316835260208301919091528051918290030190a1565b60805460009060ff1615156103be57608054610100900460ff16151561036757604080516020808252601a908201527f507265737320274e65772047616d652720746f2073746172742100000000000081830152905160008051602061207c8339815191529181900360600190a16103b6565b6040805160208082526014908201527f4974206973206e6f7420796f7572207475726e2100000000000000000000000081830152905160008051602061207c8339815191529181900360600190a15b5060006103c2565b5060015b90565b600081116103d257600080fd5b6002546040805160e060020a6370a0823102815233600482015290518392600160a060020a0316916370a08231916024808301926020929190829003018186803b15801561041f57600080fd5b505afa158015610433573d6000803e3d6000fd5b505050506040513d602081101561044957600080fd5b5051101561045657600080fd5b6003546040513391830280156108fc02916000818181858888f19350505050158015610486573d6000803e3d6000fd5b50600254604080517fb126d0e9000000000000000000000000000000000000000000000000000000008152336004820152602481018490529051600160a060020a039092169163b126d0e9916044808201926020929091908290030181600087803b1580156104f457600080fd5b505af1158015610508573d6000803e3d6000fd5b505050506040513d602081101561051e57600080fd5b5050600480548290039055610531610235565b50565b6000341161054157600080fd5b61054d81600354610ae9565b341461055857600080fd5b600254604080517f6039fbdb000000000000000000000000000000000000000000000000000000008152336004820152602481018490529051600160a060020a0390921691636039fbdb916044808201926020929091908290030181600087803b1580156105c557600080fd5b505af11580156105d9573d6000803e3d6000fd5b505050506040513d60208110156105ef57600080fd5b50506004805482019055610531610235565b6106096102f4565b1515610614576106b8565b6106406040805190810160405280600681526020016000805160206120bc833981519152815250610b11565b156106b8576040805181815260038183015260e860020a626d73670260608201526080602082018190526019908201527f506c6179657220627573742e204445414c45522057494e53210000000000000060a0820152905160008051602061209c8339815191529181900360c00190a16106b8610c8c565b565b600254600160a060020a031681565b6002546040805160e060020a6370a0823102815233600482015290518392600160a060020a0316916370a08231916024808301926020929190829003018186803b15801561071657600080fd5b505afa15801561072a573d6000803e3d6000fd5b505050506040513d602081101561074057600080fd5b5051101561079b576040805160208082526013908201527f4e6f7420656e6f7567682062616c616e6365210000000000000000000000000081830152905160008051602061207c8339815191529181900360600190a1610531565b6083819055600254604080517fb126d0e9000000000000000000000000000000000000000000000000000000008152336004820152602481018490529051600160a060020a039092169163b126d0e9916044808201926020929091908290030181600087803b15801561080d57600080fd5b505af1158015610821573d6000803e3d6000fd5b505050506040513d602081101561083757600080fd5b506108429050610235565b61084a610c99565b610852610ef1565b6080805460ff1961ff00199091166101001716600117905550565b600160a060020a03808316600081815260016020526040808220609d81559385168252812060d5908190559190529054145b92915050565b60035481565b6000546108c2903390600160a060020a031661086d565b15156108cd57600080fd5b60035460045460405133929190910280156108fc02916000818181858888f19350505050158015610902573d6000803e3d6000fd5b506002546000546040805160e060020a6370a08231028152600160a060020a03928316600482018190529151929093169263b126d0e99284916370a08231916024808301926020929190829003018186803b15801561096057600080fd5b505afa158015610974573d6000803e3d6000fd5b505050506040513d602081101561098a57600080fd5b5051604080517c010000000000000000000000000000000000000000000000000000000063ffffffff8616028152600160a060020a03909316600484015260248301919091525160448083019260209291908290030181600087803b1580156109f257600080fd5b505af1158015610a06573d6000803e3d6000fd5b505050506040513d6020811015610a1c57600080fd5b505060006004556106b8610235565b610a336102f4565b1515610a3e576106b8565b6080805460ff191681556040805181815260038183015260e860020a626d7367026060820152602081018390526024928101929092527f4e6f77207761697420666f7220746865206465616c657220746f2066696e697360a08301527f682e2e2e0000000000000000000000000000000000000000000000000000000060c08301525160008051602061209c8339815191529181900360e00190a1610ae16110aa565b6106b8610c8c565b6000811580610b06575050808202828282811515610b0357fe5b04145b151561089f57600080fd5b60006034608a54101515610b7557604080516020808252600a908201527f656d707479206465636b0000000000000000000000000000000000000000000081830152905160008051602061207c8339815191529181900360600190a1506000610c87565b610b7d611f24565b610b8561139e565b9050610b91838261150b565b601681600001516040518082805190602001908083835b60208310610bc75780518252601f199092019160209182019101610ba8565b51815160209384036101000a6000190180199092169116179052920194855250604051938490030190922054600b14159150610c7590505760886017846040518082805190602001908083835b60208310610c335780518252601f199092019160209182019101610c14565b51815160209384036101000a600019018019909216911617905292019485525060405193849003019092205491505060028110610c6c57fe5b01805460010190555b610c838360815460006117e0565b9150505b919050565b6080805461ffff19169055565b60015b604080516000805160206120bc83398151915281526017600682015290519081900360260190205460849060028110610cd157fe5b0154811015610d8f57604080516020810183905260808082526001908201527f700000000000000000000000000000000000000000000000000000000000000060a082015260c08183018190526006908201527f72656d6f7665000000000000000000000000000000000000000000000000000060e08201526101006060820181905260009082015290517f1d9def06989d0fdde56f34a9839a90f6e3af054b423734c77af19bc0f5353508918190036101400190a1600101610c9c565b5060015b6040805160d160020a652232b0b632b90281526017600682015290519081900360260190205460849060028110610dc657fe5b0154811015610e8457604080516020810183905260808082526001908201527f640000000000000000000000000000000000000000000000000000000000000060a082015260c08183018190526006908201527f72656d6f7665000000000000000000000000000000000000000000000000000060e08201526101006060820181905260009082015290517f1d9def06989d0fdde56f34a9839a90f6e3af054b423734c77af19bc0f5353508918190036101400190a1600101610d93565b506040805181815260038183015260e860020a626d736702606082015260806020808301829052908201527f507265737320274e65772047616d652720746f20737461727420616761696e2160a0820152905160008051602061209c8339815191529181900360c00190a1565b6040805180820190915260018082526020820152610f13906084906002611f3b565b506040805180820190915260008082526020820152610f36906086906002611f3b565b506040805180820190915260008082526020820152610f59906088906002611f3b565b506000608a81905560408051808201909152600681526000805160206120bc8339815191526020820152610f8c91611970565b610fb860408051908101604052806006815260200160d160020a652232b0b632b9028152506000611970565b610fe260408051908101604052806006815260200160d160020a652232b0b632b902815250610b11565b5061100f6040805190810160405280600681526020016000805160206120bc833981519152815250610b11565b5061103c6040805190810160405280600681526020016000805160206120bc833981519152815250610b11565b506040805181815260038183015260e860020a626d73670260608201526080602082018190526014908201527f596f75206d617920484954206f72205354414e4400000000000000000000000060a0820152905160008051602061209c8339815191529181900360c00190a1565b6110d960408051908101604052806006815260200160d160020a652232b0b632b90281525060825460016117e0565b151561110f5761110960408051908101604052806006815260200160d160020a652232b0b632b902815250610b11565b506110aa565b61113e60408051908101604052806006815260200160d160020a652232b0b632b90281525060815460006117e0565b156111bb576040805181815260038183015260e860020a626d73670260608201526080602082018190526019908201527f4465616c657220627573742e20504c415945522057494e53210000000000000060a0820152905160008051602061209c8339815191529181900360c00190a16111b6611a88565b6106b8565b604080516000805160206120bc833981519152815260176006820152905190819003602601902054600090608690600281106111f357fe5b01546040805160d160020a652232b0b632b9028152601760068201529051908190036026019020549091506000906086906002811061122e57fe5b01549050808214156112b4576040805181815260038183015260e860020a626d7367026060820152608060208201819052600b908201527f497427732061207469652100000000000000000000000000000000000000000060a0820152905160008051602061209c8339815191529181900360c00190a16112ad611b2f565b50506106b8565b8082111561132f576040805181815260038183015260e860020a626d7367026060820152608060208201819052600c908201527f504c415945522057494e5321000000000000000000000000000000000000000060a0820152905160008051602061209c8339815191529181900360c00190a16112ad611a88565b6040805181815260038183015260e860020a626d7367026060820152608060208201819052600c908201527f4445414c45522057494e5321000000000000000000000000000000000000000060a0820152905160008051602061209c8339815191529181900360c00190a15050565b6113a6611f24565b6113ae611b9f565b608a805460018101909155601890603481106113c657fe5b60408051600292830293909301805460606020601f600019610100600186161502019093169590950491820185900490940285018401835291840182815290928492849184018282801561145b5780601f106114305761010080835404028352916020019161145b565b820191906000526020600020905b81548152906001019060200180831161143e57829003601f168201915b50505050508152602001600182018054600181600116156101000203166002900480601f0160208091040260200160405190810160405280929190818152602001828054600181600116156101000203166002900480156114fd5780601f106114d2576101008083540402835291602001916114fd565b820191906000526020600020905b8154815290600101906020018083116114e057829003601f168201915b505050505081525050905090565b600060846017846040518082805190602001908083835b602083106115415780518252601f199092019160209182019101611522565b51815160209384036101000a60001901801990921691161790529201948552506040519384900301909220549150506002811061157a57fe5b015490507f1d9def06989d0fdde56f34a9839a90f6e3af054b423734c77af19bc0f535350883828460200151856000015160405180806020018581526020018060200180602001848103845288818151815260200191508051906020019080838360005b838110156115f65781810151838201526020016115de565b50505050905090810190601f1680156116235780820380516001836020036101000a031916815260200191505b50848103835286518152865160209182019188019080838360005b8381101561165657818101518382015260200161163e565b50505050905090810190601f1680156116835780820380516001836020036101000a031916815260200191505b50848103825285518152855160209182019187019080838360005b838110156116b657818101518382015260200161169e565b50505050905090810190601f1680156116e35780820380516001836020036101000a031916815260200191505b5097505050505050505060405180910390a161176683601684600001516040518082805190602001908083835b6020831061172f5780518252601f199092019160209182019101611710565b51815160209384036101000a6000190180199092169116179052920194855250604051938490030190922054915060009050611ddd565b60846017846040518082805190602001908083835b6020831061179a5780518252601f19909201916020918201910161177b565b51815160209384036101000a6000190180199092169116179052920194855250604051938490030190922054915050600281106117d357fe5b0180546001019055505050565b60005b8260866017866040518082805190602001908083835b602083106118185780518252601f1990920191602091820191016117f9565b51815160209384036101000a60001901801990921691161790529201948552506040519384900301909220549150506002811061185157fe5b0154106119655760886017856040518082805190602001908083835b6020831061188c5780518252601f19909201916020918201910161186d565b51815160209384036101000a6000190180199092169116179052920194855250604051938490030190922054915050600281106118c557fe5b015415806118d05750815b156118dd57506001611969565b60886017856040518082805190602001908083835b602083106119115780518252601f1990920191602091820191016118f2565b51815160209384036101000a60001901801990921691161790529201948552506040519384900301909220549150506002811061194a57fe5b01805460001901905561196084600a6001611ddd565b6117e3565b5060005b9392505050565b8060866017846040518082805190602001908083835b602083106119a55780518252601f199092019160209182019101611986565b51815160209384036101000a6000190180199092169116179052920194855250604051938490030190922054915050600281106119de57fe5b01819055507fbddac1178984c0b19fc7c85ab816b7d96982ca64ca3f533c1d057350cdc24d9b82826040518080602001838152602001828103825284818151815260200191508051906020019080838360005b83811015611a49578181015183820152602001611a31565b50505050905090810190601f168015611a765780820380516001836020036101000a031916815260200191505b50935050505060405180910390a15050565b60028054608354604080517f6039fbdb0000000000000000000000000000000000000000000000000000000081523360048201529190930260248201529151600160a060020a0390911691636039fbdb9160448083019260209291908290030181600087803b158015611afa57600080fd5b505af1158015611b0e573d6000803e3d6000fd5b505050506040513d6020811015611b2457600080fd5b506106b89050610235565b600254608354604080517fb126d0e9000000000000000000000000000000000000000000000000000000008152336004820152602481019290925251600160a060020a039092169163b126d0e9916044808201926020929091908290030181600087803b158015611afa57600080fd5b608a546000816034819003611bb2611ee2565b811515611bbb57fe5b06019050611bc7611f24565b60188360348110611bd457fe5b60408051600292830293909301805460606020601f6000196101006001861615020190931695909504918201859004909402850184018352918401828152909284928491840182828015611c695780601f10611c3e57610100808354040283529160200191611c69565b820191906000526020600020905b815481529060010190602001808311611c4c57829003601f168201915b50505050508152602001600182018054600181600116156101000203166002900480601f016020809104026020016040519081016040528092919081815260200182805460018160011615610100020316600290048015611d0b5780601f10611ce057610100808354040283529160200191611d0b565b820191906000526020600020905b815481529060010190602001808311611cee57829003601f168201915b5050505050815250509050601882603481101515611d2557fe5b6002020160188460348110611d3657fe5b6002020160008201816000019080546001816001161561010002031660029004611d61929190611f7e565b5060018201816001019080546001816001161561010002031660029004611d89929190611f7e565b50829150601890508360348110611d9c57fe5b600202016000820151816000019080519060200190611dbc929190611ff3565b506020828101518051611dd59260018501920190611ff3565b505050505050565b6000811515611e5e578260866017866040518082805190602001908083835b60208310611e1b5780518252601f199092019160209182019101611dfc565b51815160209384036101000a600019018019909216911617905292019485525060405193849003019092205491505060028110611e5457fe5b0154019050611ed2565b8260866017866040518082805190602001908083835b60208310611e935780518252601f199092019160209182019101611e74565b51815160209384036101000a600019018019909216911617905292019485525060405193849003019092205491505060028110611ecc57fe5b01540390505b611edc8482611970565b50505050565b604080514460208083019190915242828401526c0100000000000000000000000033026060830152825160548184030181526074909201909252805191012090565b604080518082019091526060808252602082015290565b8260028101928215611f6e579160200282015b82811115611f6e578251829060ff16905591602001919060010190611f4e565b50611f7a929150612061565b5090565b828054600181600116156101000203166002900490600052602060002090601f016020900481019282601f10611fb75780548555611f6e565b82800160010185558215611f6e57600052602060002091601f016020900482015b82811115611f6e578254825591600101919060010190611fd8565b828054600181600116156101000203166002900490600052602060002090601f016020900481019282601f1061203457805160ff1916838001178555611f6e565b82800160010185558215611f6e579182015b82811115611f6e578251825591602001919060010190612046565b6103c291905b80821115611f7a576000815560010161206756feb42f912d2a6c6c7da83228b8b84b12578ffa4267ec2980110bcf1f59c083298689b36a4f20a8a61ef3f4b26bba154d5ff87ed00f15e6fa2712b370e0d394a6a5506c617965720000000000000000000000000000000000000000000000000000a165627a7a72305820defc75b0b41195c625d77ae9a537c9edc4c7490efd638e45599fbb86f3eae36d0029",
  "source": "pragma solidity ^0.5.0;\r\n\r\nimport \"./BJToken.sol\";\r\n\r\ncontract BJTokenGame {\r\n    address admin;\r\n    mapping(address => uint) test; // in order to check if two addresses are the same\r\n\r\n    BJToken public tokenContract;\r\n    uint256 public tokenPrice;\r\n    uint256 tokensInContract;\r\n\r\n\r\n    event Sell(address _buyer, uint256 _amount);\r\n    event BalanceOf(address _account, uint256 _amount);\r\n\r\n    constructor (BJToken _tokenContract, uint256 _tokenPrice) public {\r\n        admin = msg.sender;\r\n        tokenContract = _tokenContract;\r\n        tokenPrice = _tokenPrice;\r\n        tokensInContract = 0;\r\n        initMaps();\r\n        initDeck();\r\n    }\r\n\r\n    function compareAddresses(address a, address b) public returns (bool) {\r\n        test[a] = 157;\r\n        test[b] = 213;\r\n        return (test[a] == 213);\r\n    }\r\n\r\n    function multiply(uint x, uint y) internal pure returns (uint z) {\r\n        require(y == 0 || (z = x * y) / y == x);\r\n    }\r\n\r\n    function buyTokens(uint256 _numberOfTokens) public payable {\r\n        require(msg.value > 0);\r\n        require(msg.value == multiply(_numberOfTokens, tokenPrice));\r\n        \r\n        tokenContract.addTokens(msg.sender, _numberOfTokens);\r\n        tokensInContract += _numberOfTokens;\r\n\r\n        refreshBalance();\r\n    }\r\n\r\n    function withdraw(uint256 _numberOfTokens) public {\r\n        require(_numberOfTokens > 0);\r\n        require(tokenContract.balanceOf(msg.sender) >= _numberOfTokens);\r\n\r\n        msg.sender.transfer(_numberOfTokens * tokenPrice);\r\n\r\n        tokenContract.deductTokens(msg.sender, _numberOfTokens);\r\n        tokensInContract -= _numberOfTokens;\r\n\r\n        refreshBalance();\r\n    }\r\n\r\n    function withdrawAll() public {\r\n        require(compareAddresses(msg.sender, admin));\r\n        msg.sender.transfer(tokensInContract * tokenPrice);\r\n\r\n        tokenContract.deductTokens(admin, tokenContract.balanceOf(admin));  \r\n        tokensInContract = 0;\r\n\r\n        refreshBalance();\r\n    }\r\n\r\n    function refreshBalance() public {\r\n        emit BalanceOf(msg.sender, tokenContract.balanceOf(msg.sender));\r\n    }\r\n\r\n\r\n    //-------------------------------- Game Logic ----------------------------------------------\r\n\r\n    function random() private view returns (uint) {\r\n        // sha3 and now have been deprecated\r\n        // return 1;\r\n        return uint(keccak256(abi.encodePacked(block.difficulty, block.timestamp, msg.sender)));\r\n        // convert hash to integer\r\n        // players is an array of entrants\r\n        \r\n    }\r\n\r\n    event Alert(string _msg);\r\n    event SetAmount(string _user, uint _newAmount);\r\n    event ChangeHTMLText(string _id, string _newText);\r\n    event PlaceCard(string _user, uint _index, string _suit, string _value);\r\n\r\n    string[4] suits = [\"\\u2660\", \"\\u2662\", \"\\u2667\", \"\\u2665\"];\r\n    string[13] values = [\"A\", \"2\", \"3\", \"4\", \"5\", \"6\", \"7\", \"8\", \"9\", \"10\", \"J\", \"Q\", \"K\"];\r\n\r\n    mapping(string => uint) valuesToNumbers;\r\n    mapping(string => uint) userToIndex;\r\n\r\n    function initMaps() private {\r\n\r\n        valuesToNumbers[\"A\"] = 11;\r\n        valuesToNumbers[\"2\"] = 2;\r\n        valuesToNumbers[\"3\"] = 3;\r\n        valuesToNumbers[\"4\"] = 4;\r\n        valuesToNumbers[\"5\"] = 5;\r\n        valuesToNumbers[\"6\"] = 6;\r\n        valuesToNumbers[\"7\"] = 7;\r\n        valuesToNumbers[\"8\"] = 8;\r\n        valuesToNumbers[\"9\"] = 9;\r\n        valuesToNumbers[\"10\"] = 10;\r\n        valuesToNumbers[\"J\"] = 10;\r\n        valuesToNumbers[\"Q\"] = 10;\r\n        valuesToNumbers[\"K\"] = 10;\r\n\r\n        userToIndex[\"Player\"] = 0;\r\n        userToIndex[\"Dealer\"] = 1;\r\n    }\r\n\r\n    struct Card {\r\n        string value;\r\n        string suit;\r\n    }\r\n\r\n    Card[52] deck;\r\n\r\n    bool playerTurn = false;        // indicates whether the player can hit or stand\r\n    bool inGame = false;            // indicates whether the player is currently in game\r\n    uint BUSTLIMIT = 22;\r\n    uint DEALLIMIT = 17;\r\n\r\n    uint currentBet;\r\n\r\n    uint[2] indexInTable;\r\n    uint[2] amount;\r\n    uint[2] countAces;\r\n\r\n    uint indexInDeck;\r\n\r\n    function initDeck() private {\r\n        uint index = 0;\r\n\r\n        for(uint i = 0; i < values.length; i++) {\r\n            for(uint j = 0; j < suits.length; j++) {\r\n                Card memory card = Card(values[i], suits[j]);\r\n                deck[index] = card;\r\n                index++;\r\n            }\r\n        }\r\n        indexInDeck = 0;\r\n    }\r\n\r\n    function setAmount(string memory user, uint newAmount) private {\r\n        amount[userToIndex[user]] = newAmount;\r\n        emit SetAmount(user, newAmount);\r\n    }\r\n\r\n    function addAmount(string memory user, uint adding, bool minus) private {\r\n        uint ret = 0;\r\n        if (!minus) {\r\n            ret = amount[userToIndex[user]] + adding;\r\n        } else {\r\n            ret = amount[userToIndex[user]] - adding;\r\n        }\r\n        \r\n        setAmount(user, ret);\r\n    }\r\n\r\n    function popDeck() private returns (Card memory) {\r\n        shuffleFirst();\r\n        indexInDeck++;\r\n        return deck[indexInDeck - 1];\r\n    }\r\n    \r\n    function placeCard(string memory user, Card memory card) private {\r\n        uint index = indexInTable[userToIndex[user]];\r\n        emit PlaceCard(user, index, card.suit, card.value);\r\n        addAmount(user, valuesToNumbers[card.value], false);\r\n        indexInTable[userToIndex[user]]++;\r\n    }\r\n\r\n\r\n    function shuffleFirst() private {\r\n        uint location1 = indexInDeck;\r\n        uint location2 = (random() % (deck.length- indexInDeck)) + indexInDeck;\r\n        Card memory tmp = deck[location1];\r\n\r\n        deck[location1] = deck[location2];\r\n        deck[location2] = tmp;\r\n\r\n    }\r\n\r\n    function checkIfPlayerTurn() public returns(bool) {\r\n        if (!playerTurn) {\r\n            if (!inGame) {\r\n                emit Alert(\"Press \\'New Game\\' to start!\");\r\n            } else {\r\n                emit Alert(\"It is not your turn!\");\r\n            }\r\n            return false;\r\n        }\r\n        return true;\r\n    }\r\n\r\n    function hitHTML() public {\r\n        if (!checkIfPlayerTurn()) {\r\n            return;\r\n        }\r\n        if (hitJS(\"Player\")) {\r\n            emit ChangeHTMLText(\"msg\", \"Player bust. DEALER WINS!\");\r\n            endGame();\r\n        }\r\n    }\r\n\r\n    function hitJS(string memory user) private returns (bool) {\r\n        //opens the top card of the deck\r\n        if (indexInDeck >= deck.length) {\r\n            emit Alert(\"empty deck\");\r\n            return false;\r\n        }\r\n        Card memory card = popDeck();\r\n        placeCard(user, card);\r\n        if (valuesToNumbers[card.value] == 11) {\r\n            countAces[userToIndex[user]]++;\r\n        }\r\n\r\n        return isAbove(user, BUSTLIMIT, false);\r\n\r\n    }\r\n\r\n    function standHTML() public {\r\n        if (!checkIfPlayerTurn()) {\r\n            return;\r\n        }\r\n        playerTurn = false;\r\n        emit ChangeHTMLText(\"msg\", \"Now wait for the dealer to finish...\");\r\n        runDealer();\r\n        endGame();\r\n    }\r\n\r\n    function runDealer() private {\r\n        while (!isAbove(\"Dealer\", DEALLIMIT, true)) {\r\n            hitJS(\"Dealer\");\r\n        }\r\n\r\n        if (isAbove(\"Dealer\", BUSTLIMIT, false)) {\r\n            emit ChangeHTMLText(\"msg\", \"Dealer bust. PLAYER WINS!\");\r\n            playerWin();\r\n            return;\r\n        }\r\n\r\n        uint playerAmount = amount[userToIndex[\"Player\"]];\r\n        uint dealerAmount = amount[userToIndex[\"Dealer\"]];\r\n\r\n        if (playerAmount == dealerAmount) {\r\n            emit ChangeHTMLText(\"msg\", \"It's a tie!\");\r\n            tie();\r\n            return;\r\n        }\r\n\r\n        if (playerAmount > dealerAmount) {\r\n            emit ChangeHTMLText(\"msg\", \"PLAYER WINS!\");\r\n            playerWin();\r\n            return;\r\n        }\r\n\r\n        emit ChangeHTMLText(\"msg\", \"DEALER WINS!\");\r\n    }\r\n\r\n    function isAbove(string memory user, uint limit, bool deal) private returns(bool) {\r\n        // returns whether we have passed the limit\r\n        \r\n        while (amount[userToIndex[user]] >= limit) {\r\n            if ((countAces[userToIndex[user]] == 0) || deal) {\r\n                return true;\r\n            }\r\n            //wait 1 second\r\n            countAces[userToIndex[user]]--;\r\n            addAmount(user, 10, true);\r\n\r\n        }\r\n        \r\n        return false;\r\n    }   \r\n\r\n    function playerWin() private {\r\n        tokenContract.addTokens(msg.sender, 2 * currentBet);\r\n        refreshBalance();\r\n    }\r\n\r\n\r\n    function tie() private {\r\n        tokenContract.deductTokens(msg.sender, currentBet);\r\n        refreshBalance();\r\n    }\r\n\r\n    function cleanTable() private {\r\n        // clean: all the cards\r\n        for (uint i = 1; i < indexInTable[userToIndex[\"Player\"]]; i++) {\r\n            emit PlaceCard(\"p\", i, \"remove\", \"\");\r\n        }\r\n        for (uint i = 1; i < indexInTable[userToIndex[\"Dealer\"]]; i++){\r\n            emit PlaceCard(\"d\", i, \"remove\", \"\");\r\n        }\r\n\r\n        emit ChangeHTMLText(\"msg\", \"Press \\'New Game\\' to start again!\");\r\n    }\r\n\r\n    function endGame() private {\r\n        playerTurn = false;\r\n        inGame = false;\r\n    }\r\n\r\n    function gameSetup() private {\r\n        indexInTable = [1, 1];\r\n        amount = [0, 0];\r\n        countAces = [0, 0];\r\n        indexInDeck = 0;\r\n        setAmount(\"Player\", 0);\r\n        setAmount(\"Dealer\", 0);\r\n        hitJS(\"Dealer\");\r\n        hitJS(\"Player\");\r\n        hitJS(\"Player\");\r\n        emit ChangeHTMLText(\"msg\", \"You may HIT or STAND\");\r\n    }\r\n\r\n    function singleGame(uint betAmount) public {\r\n        if (tokenContract.balanceOf(msg.sender) < betAmount) {\r\n            emit Alert(\"Not enough balance!\");\r\n            return;\r\n        }\r\n        currentBet = betAmount;\r\n        tokenContract.deductTokens(msg.sender, currentBet);\r\n        refreshBalance();\r\n        cleanTable();\r\n        gameSetup();\r\n        inGame = true;\r\n        playerTurn = true;\r\n    }\r\n}",
  "sourcePath": "C:/Users/Sagie/Desktop/Desktop/Courses/Semester D/Workshop in Smart Contracts - Solidity/git-code/bjEther/contracts/BJTokenGame.sol",
  "compiler": {
    "name": "solc",
    "version": "0.5.0+commit.1d4f565a.Emscripten.clang"
  },
  "schemaVersion": "3.0.1",
  "updatedAt": "2021-08-14T13:41:05.599Z",
  "devdoc": {
    "methods": {}
  },
  "userdoc": {
    "methods": {}
  }
}