{
  "contractName": "BJTokenGame",
  "abi": [
    {
      "constant": true,
      "inputs": [],
      "name": "tokenContract",
      "outputs": [
        {
          "name": "",
          "type": "address"
        }
      ],
      "payable": false,
      "stateMutability": "view",
      "type": "function",
      "signature": "0x55a373d6"
    },
    {
      "constant": true,
      "inputs": [],
      "name": "tokenPrice",
      "outputs": [
        {
          "name": "",
          "type": "uint256"
        }
      ],
      "payable": false,
      "stateMutability": "view",
      "type": "function",
      "signature": "0x7ff9b596"
    },
    {
      "inputs": [
        {
          "name": "_tokenContract",
          "type": "address"
        },
        {
          "name": "_tokenPrice",
          "type": "uint256"
        }
      ],
      "payable": false,
      "stateMutability": "nonpayable",
      "type": "constructor",
      "signature": "constructor"
    },
    {
      "anonymous": false,
      "inputs": [
        {
          "indexed": false,
          "name": "_buyer",
          "type": "address"
        },
        {
          "indexed": false,
          "name": "_amount",
          "type": "uint256"
        }
      ],
      "name": "Sell",
      "type": "event",
      "signature": "0x5e5e995ce3133561afceaa51a9a154d5db228cd7525d34df5185582c18d3df09"
    },
    {
      "anonymous": false,
      "inputs": [
        {
          "indexed": false,
          "name": "_account",
          "type": "address"
        },
        {
          "indexed": false,
          "name": "_amount",
          "type": "uint256"
        }
      ],
      "name": "BalanceOf",
      "type": "event",
      "signature": "0x53fa2f1ab3ce356105837b2d33e4d9445d41050bf57eca18817186e0242a08a9"
    },
    {
      "anonymous": false,
      "inputs": [
        {
          "indexed": false,
          "name": "_account",
          "type": "address"
        },
        {
          "indexed": false,
          "name": "_msg",
          "type": "string"
        }
      ],
      "name": "LogAccount",
      "type": "event",
      "signature": "0x81ae3943de457a60d61a45dcc46dcfeb735d7a06a3083b50f2793b555f092851"
    },
    {
      "anonymous": false,
      "inputs": [
        {
          "indexed": false,
          "name": "_msg",
          "type": "string"
        }
      ],
      "name": "Alert",
      "type": "event",
      "signature": "0xb42f912d2a6c6c7da83228b8b84b12578ffa4267ec2980110bcf1f59c0832986"
    },
    {
      "anonymous": false,
      "inputs": [
        {
          "indexed": false,
          "name": "_user",
          "type": "string"
        },
        {
          "indexed": false,
          "name": "_newAmount",
          "type": "uint256"
        }
      ],
      "name": "SetAmount",
      "type": "event",
      "signature": "0xbddac1178984c0b19fc7c85ab816b7d96982ca64ca3f533c1d057350cdc24d9b"
    },
    {
      "anonymous": false,
      "inputs": [
        {
          "indexed": false,
          "name": "_id",
          "type": "string"
        },
        {
          "indexed": false,
          "name": "_newText",
          "type": "string"
        }
      ],
      "name": "ChangeHTMLText",
      "type": "event",
      "signature": "0x89b36a4f20a8a61ef3f4b26bba154d5ff87ed00f15e6fa2712b370e0d394a6a5"
    },
    {
      "anonymous": false,
      "inputs": [
        {
          "indexed": false,
          "name": "_user",
          "type": "string"
        },
        {
          "indexed": false,
          "name": "_index",
          "type": "uint256"
        },
        {
          "indexed": false,
          "name": "_suit",
          "type": "string"
        },
        {
          "indexed": false,
          "name": "_value",
          "type": "string"
        }
      ],
      "name": "PlaceCard",
      "type": "event",
      "signature": "0x1d9def06989d0fdde56f34a9839a90f6e3af054b423734c77af19bc0f5353508"
    },
    {
      "constant": false,
      "inputs": [
        {
          "name": "_numberOfTokens",
          "type": "uint256"
        }
      ],
      "name": "buyTokens",
      "outputs": [],
      "payable": true,
      "stateMutability": "payable",
      "type": "function",
      "signature": "0x3610724e"
    },
    {
      "constant": false,
      "inputs": [
        {
          "name": "_numberOfTokens",
          "type": "uint256"
        }
      ],
      "name": "withdraw",
      "outputs": [],
      "payable": false,
      "stateMutability": "nonpayable",
      "type": "function",
      "signature": "0x2e1a7d4d"
    },
    {
      "constant": false,
      "inputs": [],
      "name": "withdrawAll",
      "outputs": [],
      "payable": false,
      "stateMutability": "nonpayable",
      "type": "function",
      "signature": "0x853828b6"
    },
    {
      "constant": false,
      "inputs": [],
      "name": "refreshBalance",
      "outputs": [],
      "payable": false,
      "stateMutability": "nonpayable",
      "type": "function",
      "signature": "0x004e1944"
    },
    {
      "constant": false,
      "inputs": [],
      "name": "checkIfPlayerTurn",
      "outputs": [
        {
          "name": "",
          "type": "bool"
        }
      ],
      "payable": false,
      "stateMutability": "nonpayable",
      "type": "function",
      "signature": "0x122e2658"
    },
    {
      "constant": false,
      "inputs": [],
      "name": "hitHTML",
      "outputs": [],
      "payable": false,
      "stateMutability": "nonpayable",
      "type": "function",
      "signature": "0x4fd4c2c7"
    },
    {
      "constant": false,
      "inputs": [],
      "name": "standHTML",
      "outputs": [],
      "payable": false,
      "stateMutability": "nonpayable",
      "type": "function",
      "signature": "0xdf271f65"
    },
    {
      "constant": false,
      "inputs": [
        {
          "name": "betAmount",
          "type": "uint256"
        }
      ],
      "name": "singleGame",
      "outputs": [],
      "payable": false,
      "stateMutability": "nonpayable",
      "type": "function",
      "signature": "0x74291ec1"
    }
  ],
  "bytecode": "0x60036101008181527fe299a000000000000000000000000000000000000000000000000000000000006101205260809081526101408281527fe299a200000000000000000000000000000000000000000000000000000000006101605260a0526101808281527fe299a700000000000000000000000000000000000000000000000000000000006101a05260c0526102006040526101c09182527fe299a500000000000000000000000000000000000000000000000000000000006101e05260e091909152620000d3906004908162000982565b50604080516101e08101825260016101a082018181527f41000000000000000000000000000000000000000000000000000000000000006101c08401528252825180840184528181527f320000000000000000000000000000000000000000000000000000000000000060208281019190915280840191909152835180850185528281527f33000000000000000000000000000000000000000000000000000000000000008183015283850152835180850185528281527f3400000000000000000000000000000000000000000000000000000000000000818301526060840152835180850185528281527f3500000000000000000000000000000000000000000000000000000000000000818301526080840152835180850185528281527f36000000000000000000000000000000000000000000000000000000000000008183015260a0840152835180850185528281527f37000000000000000000000000000000000000000000000000000000000000008183015260c0840152835180850185528281527f38000000000000000000000000000000000000000000000000000000000000008183015260e0840152835180850185528281527f39000000000000000000000000000000000000000000000000000000000000008183015261010084015283518085018552600281527f313000000000000000000000000000000000000000000000000000000000000081830152610120840152835180850185528281527f4a0000000000000000000000000000000000000000000000000000000000000081830152610140840152835180850185528281527f51000000000000000000000000000000000000000000000000000000000000008183015261016084015283518085019094529083527f4b0000000000000000000000000000000000000000000000000000000000000090830152610180810191909152620003a290600890600d620009d9565b50607f805461ffff1916905560166080556011608155348015620003c557600080fd5b5060405160408062002cd083398101806040526040811015620003e757600080fd5b5080516020909101516000805433600160a060020a031991821617825560018054909116600160a060020a0385161790556002829055600355620004336401000000006200044e810204565b620004466401000000006200079a810204565b505062000b49565b604080517f410000000000000000000000000000000000000000000000000000000000000081526015600180830182905283519283900360219081018420600b90557f32000000000000000000000000000000000000000000000000000000000000008452838201839052845193849003810184206002908190557f3300000000000000000000000000000000000000000000000000000000000000855284830184905285519485900382018520600390557f3400000000000000000000000000000000000000000000000000000000000000855284830184905285519485900382018520600490557f3500000000000000000000000000000000000000000000000000000000000000855284830184905285519485900382018520600590557f36000000000000000000000000000000000000000000000000000000000000008552848301849052855194859003820185206006908190557f3700000000000000000000000000000000000000000000000000000000000000865285840185905286519586900383018620600790557f3800000000000000000000000000000000000000000000000000000000000000865285840185905286519586900383018620600890557f3900000000000000000000000000000000000000000000000000000000000000865285840185905286519586900383018620600990557f313000000000000000000000000000000000000000000000000000000000000086529085018490528551948590036022018520600a908190557f4a000000000000000000000000000000000000000000000000000000000000008652858401859052865195869003830186208190557f51000000000000000000000000000000000000000000000000000000000000008652858401859052865195869003830186208190557f4b000000000000000000000000000000000000000000000000000000000000008652858401949094528551948590039091018420929092557f506c6179657200000000000000000000000000000000000000000000000000008352601683830181905284519384900360269081018520600090557f4465616c6572000000000000000000000000000000000000000000000000000085529284015292519182900301902055565b6000805b600d811015620009795760005b60048110156200096f57620007bf62000a1e565b6040805180820190915280600885600d8110620007d857fe5b01805460408051602060026001851615610100026000190190941693909304601f81018490048402820184019092528181529291830182828015620008615780601f10620008355761010080835404028352916020019162000861565b820191906000526020600020905b8154815290600101906020018083116200084357829003601f168201915b50505091835250506020016004848181106200087957fe5b01805460408051602060026001851615610100026000190190941693909304601f81018490048402820184019092528181529291830182828015620009025780601f10620008d65761010080835404028352916020019162000902565b820191906000526020600020905b815481529060010190602001808311620008e457829003601f168201915b50505050508152509050806017856034811015156200091d57fe5b6002020160008201518160000190805190602001906200093f92919062000a35565b5060208281015180516200095a926001850192019062000a35565b505050600193840193919091019050620007ab565b506001016200079e565b50506000608955565b8260048101928215620009c7579160200282015b82811115620009c75782518051620009b691849160209091019062000a35565b509160200191906001019062000996565b50620009d592915062000ab6565b5090565b82600d8101928215620009c7579160200282015b82811115620009c7578251805162000a0d91849160209091019062000a35565b5091602001919060010190620009ed565b604080518082019091526060808252602082015290565b828054600181600116156101000203166002900490600052602060002090601f016020900481019282601f1062000a7857805160ff191683800117855562000aa8565b8280016001018555821562000aa8579182015b8281111562000aa857825182559160200191906001019062000a8b565b50620009d592915062000ae1565b62000ade91905b80821115620009d557600062000ad4828262000afe565b5060010162000abd565b90565b62000ade91905b80821115620009d5576000815560010162000ae8565b50805460018160011615610100020316600290046000825580601f1062000b26575062000b46565b601f01602090049060005260206000209081019062000b46919062000ae1565b50565b6121778062000b596000396000f3fe6080604052600436106100a25763ffffffff7c01000000000000000000000000000000000000000000000000000000006000350416624e194481146100a7578063122e2658146100be5780632e1a7d4d146100e75780633610724e146101115780634fd4c2c71461012e57806355a373d61461014357806374291ec1146101745780637ff9b5961461019e578063853828b6146101c5578063df271f65146101da575b600080fd5b3480156100b357600080fd5b506100bc6101ef565b005b3480156100ca57600080fd5b506100d36102ae565b604080519115158252519081900360200190f35b3480156100f357600080fd5b506100bc6004803603602081101561010a57600080fd5b503561037f565b6100bc6004803603602081101561012757600080fd5b50356104fd565b34801561013a57600080fd5b506100bc6105ca565b34801561014f57600080fd5b50610158610683565b60408051600160a060020a039092168252519081900360200190f35b34801561018057600080fd5b506100bc6004803603602081101561019757600080fd5b5035610692565b3480156101aa57600080fd5b506101b3610836565b60408051918252519081900360200190f35b3480156101d157600080fd5b506100bc61083c565b3480156101e657600080fd5b506100bc610a95565b6001546040805160e060020a6370a08231028152336004820181905291517f53fa2f1ab3ce356105837b2d33e4d9445d41050bf57eca18817186e0242a08a993600160a060020a0316916370a08231916024808301926020929190829003018186803b15801561025e57600080fd5b505afa158015610272573d6000803e3d6000fd5b505050506040513d602081101561028857600080fd5b505160408051600160a060020a03909316835260208301919091528051918290030190a1565b607f5460009060ff16151561037857607f54610100900460ff16151561032157604080516020808252601a908201527f507265737320274e65772047616d652720746f207374617274210000000000008183015290516000805160206120ec8339815191529181900360600190a1610370565b6040805160208082526014908201527f4974206973206e6f7420796f7572207475726e210000000000000000000000008183015290516000805160206120ec8339815191529181900360600190a15b50600061037c565b5060015b90565b6000811161038c57600080fd5b60035481111561039b57600080fd5b6001546040805160e060020a6370a0823102815233600482015290518392600160a060020a0316916370a08231916024808301926020929190829003018186803b1580156103e857600080fd5b505afa1580156103fc573d6000803e3d6000fd5b505050506040513d602081101561041257600080fd5b5051101561041f57600080fd5b6002546040513391830280156108fc02916000818181858888f1935050505015801561044f573d6000803e3d6000fd5b50600154604080517fb126d0e9000000000000000000000000000000000000000000000000000000008152336004820152602481018490529051600160a060020a039092169163b126d0e9916044808201926020929091908290030181600087803b1580156104bd57600080fd5b505af11580156104d1573d6000803e3d6000fd5b505050506040513d60208110156104e757600080fd5b50506003805482900390556104fa6101ef565b50565b6000341161050a57600080fd5b61051681600254610b53565b341461052157600080fd5b600154604080517f6039fbdb000000000000000000000000000000000000000000000000000000008152336004820152602481018490529051600160a060020a0390921691636039fbdb916044808201926020929091908290030181600087803b15801561058e57600080fd5b505af11580156105a2573d6000803e3d6000fd5b505050506040513d60208110156105b857600080fd5b505060038054820190556104fa6101ef565b6105d26102ae565b15156105dd57610681565b61060960408051908101604052806006815260200160008051602061212c833981519152815250610b81565b15610681576040805181815260038183015260e860020a626d73670260608201526080602082018190526019908201527f506c6179657220627573742e204445414c45522057494e53210000000000000060a0820152905160008051602061210c8339815191529181900360c00190a1610681610cfc565b565b600154600160a060020a031681565b6001546040805160e060020a6370a0823102815233600482015290518392600160a060020a0316916370a08231916024808301926020929190829003018186803b1580156106df57600080fd5b505afa1580156106f3573d6000803e3d6000fd5b505050506040513d602081101561070957600080fd5b50511015610764576040805160208082526013908201527f4e6f7420656e6f7567682062616c616e636521000000000000000000000000008183015290516000805160206120ec8339815191529181900360600190a16104fa565b6082819055600154604080517fb126d0e9000000000000000000000000000000000000000000000000000000008152336004820152602481018490529051600160a060020a039092169163b126d0e9916044808201926020929091908290030181600087803b1580156107d657600080fd5b505af11580156107ea573d6000803e3d6000fd5b505050506040513d602081101561080057600080fd5b5061080b90506101ef565b610813610d09565b61081b610f61565b607f805460ff1961ff00199091166101001716600117905550565b60025481565b6040805133815260208101829052601c818301527f486520697320747279696e6720746f20776974686472617720616c6c00000000606082015290517f81ae3943de457a60d61a45dcc46dcfeb735d7a06a3083b50f2793b555f0928519181900360800190a160005460408051600160a060020a039092168252602082018190526019828201527f54686973206973207468652063757272656e742061646d696e000000000000006060830152517f81ae3943de457a60d61a45dcc46dcfeb735d7a06a3083b50f2793b555f0928519181900360800190a1600054600160a060020a0316331461092b57600080fd5b60008054600254600354604051600160a060020a0390931693910280156108fc02929091818181858888f1935050505015801561096c573d6000803e3d6000fd5b506001546000546040805160e060020a6370a08231028152600160a060020a03928316600482018190529151929093169263b126d0e99284916370a08231916024808301926020929190829003018186803b1580156109ca57600080fd5b505afa1580156109de573d6000803e3d6000fd5b505050506040513d60208110156109f457600080fd5b5051604080517c010000000000000000000000000000000000000000000000000000000063ffffffff8616028152600160a060020a03909316600484015260248301919091525160448083019260209291908290030181600087803b158015610a5c57600080fd5b505af1158015610a70573d6000803e3d6000fd5b505050506040513d6020811015610a8657600080fd5b505060006003556106816101ef565b610a9d6102ae565b1515610aa857610681565b607f805460ff191690556040805181815260038183015260e860020a626d73670260608201526080602082018190526024908201527f4e6f77207761697420666f7220746865206465616c657220746f2066696e697360a08201527f682e2e2e0000000000000000000000000000000000000000000000000000000060c0820152905160008051602061210c8339815191529181900360e00190a1610b4b61111a565b610681610cfc565b6000811580610b70575050808202828282811515610b6d57fe5b04145b1515610b7b57600080fd5b92915050565b60006034608954101515610be557604080516020808252600a908201527f656d707479206465636b000000000000000000000000000000000000000000008183015290516000805160206120ec8339815191529181900360600190a1506000610cf7565b610bed611f94565b610bf561140e565b9050610c01838261157b565b601581600001516040518082805190602001908083835b60208310610c375780518252601f199092019160209182019101610c18565b51815160209384036101000a6000190180199092169116179052920194855250604051938490030190922054600b14159150610ce590505760876016846040518082805190602001908083835b60208310610ca35780518252601f199092019160209182019101610c84565b51815160209384036101000a600019018019909216911617905292019485525060405193849003019092205491505060028110610cdc57fe5b01805460010190555b610cf3836080546000611850565b9150505b919050565b607f805461ffff19169055565b60015b6040805160008051602061212c83398151915281526016600682015290519081900360260190205460839060028110610d4157fe5b0154811015610dff57604080516020810183905260808082526001908201527f700000000000000000000000000000000000000000000000000000000000000060a082015260c08183018190526006908201527f72656d6f7665000000000000000000000000000000000000000000000000000060e08201526101006060820181905260009082015290517f1d9def06989d0fdde56f34a9839a90f6e3af054b423734c77af19bc0f5353508918190036101400190a1600101610d0c565b5060015b6040805160d160020a652232b0b632b90281526016600682015290519081900360260190205460839060028110610e3657fe5b0154811015610ef457604080516020810183905260808082526001908201527f640000000000000000000000000000000000000000000000000000000000000060a082015260c08183018190526006908201527f72656d6f7665000000000000000000000000000000000000000000000000000060e08201526101006060820181905260009082015290517f1d9def06989d0fdde56f34a9839a90f6e3af054b423734c77af19bc0f5353508918190036101400190a1600101610e03565b506040805181815260038183015260e860020a626d736702606082015260806020808301829052908201527f507265737320274e65772047616d652720746f20737461727420616761696e2160a0820152905160008051602061210c8339815191529181900360c00190a1565b6040805180820190915260018082526020820152610f83906083906002611fab565b506040805180820190915260008082526020820152610fa6906085906002611fab565b506040805180820190915260008082526020820152610fc9906087906002611fab565b5060006089819055604080518082019091526006815260008051602061212c8339815191526020820152610ffc916119e0565b61102860408051908101604052806006815260200160d160020a652232b0b632b90281525060006119e0565b61105260408051908101604052806006815260200160d160020a652232b0b632b902815250610b81565b5061107f60408051908101604052806006815260200160008051602061212c833981519152815250610b81565b506110ac60408051908101604052806006815260200160008051602061212c833981519152815250610b81565b506040805181815260038183015260e860020a626d73670260608201526080602082018190526014908201527f596f75206d617920484954206f72205354414e4400000000000000000000000060a0820152905160008051602061210c8339815191529181900360c00190a1565b61114960408051908101604052806006815260200160d160020a652232b0b632b9028152506081546001611850565b151561117f5761117960408051908101604052806006815260200160d160020a652232b0b632b902815250610b81565b5061111a565b6111ae60408051908101604052806006815260200160d160020a652232b0b632b9028152506080546000611850565b1561122b576040805181815260038183015260e860020a626d73670260608201526080602082018190526019908201527f4465616c657220627573742e20504c415945522057494e53210000000000000060a0820152905160008051602061210c8339815191529181900360c00190a1611226611af8565b610681565b6040805160008051602061212c8339815191528152601660068201529051908190036026019020546000906085906002811061126357fe5b01546040805160d160020a652232b0b632b9028152601660068201529051908190036026019020549091506000906085906002811061129e57fe5b0154905080821415611324576040805181815260038183015260e860020a626d7367026060820152608060208201819052600b908201527f497427732061207469652100000000000000000000000000000000000000000060a0820152905160008051602061210c8339815191529181900360c00190a161131d611b9f565b5050610681565b8082111561139f576040805181815260038183015260e860020a626d7367026060820152608060208201819052600c908201527f504c415945522057494e5321000000000000000000000000000000000000000060a0820152905160008051602061210c8339815191529181900360c00190a161131d611af8565b6040805181815260038183015260e860020a626d7367026060820152608060208201819052600c908201527f4445414c45522057494e5321000000000000000000000000000000000000000060a0820152905160008051602061210c8339815191529181900360c00190a15050565b611416611f94565b61141e611c0f565b60898054600181019091556017906034811061143657fe5b60408051600292830293909301805460606020601f60001961010060018616150201909316959095049182018590049094028501840183529184018281529092849284918401828280156114cb5780601f106114a0576101008083540402835291602001916114cb565b820191906000526020600020905b8154815290600101906020018083116114ae57829003601f168201915b50505050508152602001600182018054600181600116156101000203166002900480601f01602080910402602001604051908101604052809291908181526020018280546001816001161561010002031660029004801561156d5780601f106115425761010080835404028352916020019161156d565b820191906000526020600020905b81548152906001019060200180831161155057829003601f168201915b505050505081525050905090565b600060836016846040518082805190602001908083835b602083106115b15780518252601f199092019160209182019101611592565b51815160209384036101000a6000190180199092169116179052920194855250604051938490030190922054915050600281106115ea57fe5b015490507f1d9def06989d0fdde56f34a9839a90f6e3af054b423734c77af19bc0f535350883828460200151856000015160405180806020018581526020018060200180602001848103845288818151815260200191508051906020019080838360005b8381101561166657818101518382015260200161164e565b50505050905090810190601f1680156116935780820380516001836020036101000a031916815260200191505b50848103835286518152865160209182019188019080838360005b838110156116c65781810151838201526020016116ae565b50505050905090810190601f1680156116f35780820380516001836020036101000a031916815260200191505b50848103825285518152855160209182019187019080838360005b8381101561172657818101518382015260200161170e565b50505050905090810190601f1680156117535780820380516001836020036101000a031916815260200191505b5097505050505050505060405180910390a16117d683601584600001516040518082805190602001908083835b6020831061179f5780518252601f199092019160209182019101611780565b51815160209384036101000a6000190180199092169116179052920194855250604051938490030190922054915060009050611e4d565b60836016846040518082805190602001908083835b6020831061180a5780518252601f1990920191602091820191016117eb565b51815160209384036101000a60001901801990921691161790529201948552506040519384900301909220549150506002811061184357fe5b0180546001019055505050565b60005b8260856016866040518082805190602001908083835b602083106118885780518252601f199092019160209182019101611869565b51815160209384036101000a6000190180199092169116179052920194855250604051938490030190922054915050600281106118c157fe5b0154106119d55760876016856040518082805190602001908083835b602083106118fc5780518252601f1990920191602091820191016118dd565b51815160209384036101000a60001901801990921691161790529201948552506040519384900301909220549150506002811061193557fe5b015415806119405750815b1561194d575060016119d9565b60876016856040518082805190602001908083835b602083106119815780518252601f199092019160209182019101611962565b51815160209384036101000a6000190180199092169116179052920194855250604051938490030190922054915050600281106119ba57fe5b0180546000190190556119d084600a6001611e4d565b611853565b5060005b9392505050565b8060856016846040518082805190602001908083835b60208310611a155780518252601f1990920191602091820191016119f6565b51815160209384036101000a600019018019909216911617905292019485525060405193849003019092205491505060028110611a4e57fe5b01819055507fbddac1178984c0b19fc7c85ab816b7d96982ca64ca3f533c1d057350cdc24d9b82826040518080602001838152602001828103825284818151815260200191508051906020019080838360005b83811015611ab9578181015183820152602001611aa1565b50505050905090810190601f168015611ae65780820380516001836020036101000a031916815260200191505b50935050505060405180910390a15050565b600154608254604080517f6039fbdb0000000000000000000000000000000000000000000000000000000081523360048201526002909202602483015251600160a060020a0390921691636039fbdb916044808201926020929091908290030181600087803b158015611b6a57600080fd5b505af1158015611b7e573d6000803e3d6000fd5b505050506040513d6020811015611b9457600080fd5b5061068190506101ef565b600154608254604080517fb126d0e9000000000000000000000000000000000000000000000000000000008152336004820152602481019290925251600160a060020a039092169163b126d0e9916044808201926020929091908290030181600087803b158015611b6a57600080fd5b6089546000816034819003611c22611f52565b811515611c2b57fe5b06019050611c37611f94565b60178360348110611c4457fe5b60408051600292830293909301805460606020601f6000196101006001861615020190931695909504918201859004909402850184018352918401828152909284928491840182828015611cd95780601f10611cae57610100808354040283529160200191611cd9565b820191906000526020600020905b815481529060010190602001808311611cbc57829003601f168201915b50505050508152602001600182018054600181600116156101000203166002900480601f016020809104026020016040519081016040528092919081815260200182805460018160011615610100020316600290048015611d7b5780601f10611d5057610100808354040283529160200191611d7b565b820191906000526020600020905b815481529060010190602001808311611d5e57829003601f168201915b5050505050815250509050601782603481101515611d9557fe5b6002020160178460348110611da657fe5b6002020160008201816000019080546001816001161561010002031660029004611dd1929190611fee565b5060018201816001019080546001816001161561010002031660029004611df9929190611fee565b50829150601790508360348110611e0c57fe5b600202016000820151816000019080519060200190611e2c929190612063565b506020828101518051611e459260018501920190612063565b505050505050565b6000811515611ece578260856016866040518082805190602001908083835b60208310611e8b5780518252601f199092019160209182019101611e6c565b51815160209384036101000a600019018019909216911617905292019485525060405193849003019092205491505060028110611ec457fe5b0154019050611f42565b8260856016866040518082805190602001908083835b60208310611f035780518252601f199092019160209182019101611ee4565b51815160209384036101000a600019018019909216911617905292019485525060405193849003019092205491505060028110611f3c57fe5b01540390505b611f4c84826119e0565b50505050565b604080514460208083019190915242828401526c0100000000000000000000000033026060830152825160548184030181526074909201909252805191012090565b604080518082019091526060808252602082015290565b8260028101928215611fde579160200282015b82811115611fde578251829060ff16905591602001919060010190611fbe565b50611fea9291506120d1565b5090565b828054600181600116156101000203166002900490600052602060002090601f016020900481019282601f106120275780548555611fde565b82800160010185558215611fde57600052602060002091601f016020900482015b82811115611fde578254825591600101919060010190612048565b828054600181600116156101000203166002900490600052602060002090601f016020900481019282601f106120a457805160ff1916838001178555611fde565b82800160010185558215611fde579182015b82811115611fde5782518255916020019190600101906120b6565b61037c91905b80821115611fea57600081556001016120d756feb42f912d2a6c6c7da83228b8b84b12578ffa4267ec2980110bcf1f59c083298689b36a4f20a8a61ef3f4b26bba154d5ff87ed00f15e6fa2712b370e0d394a6a5506c617965720000000000000000000000000000000000000000000000000000a165627a7a72305820883c99d2b4dbb25388ef4b8a65f262b6c6b8c31f45b11bb3eefbcf2f17691cac0029",
  "source": "pragma solidity ^0.5.0;\r\n\r\nimport \"./BJToken.sol\";\r\n\r\ncontract BJTokenGame {\r\n    address payable admin;\r\n\r\n    BJToken public tokenContract;\r\n    uint256 public tokenPrice;\r\n    uint256 tokensInContract;\r\n\r\n\r\n    event Sell(address _buyer, uint256 _amount);\r\n    event BalanceOf(address _account, uint256 _amount);\r\n    event LogAccount(address _account, string _msg);\r\n\r\n    constructor (BJToken _tokenContract, uint256 _tokenPrice) public {\r\n        admin = msg.sender;\r\n        tokenContract = _tokenContract;\r\n        tokenPrice = _tokenPrice;\r\n        tokensInContract = 0;\r\n        initMaps();\r\n        initDeck();\r\n    }\r\n\r\n    function multiply(uint x, uint y) internal pure returns (uint z) {\r\n        // returns x * y.\r\n        require(y == 0 || (z = x * y) / y == x);\r\n    }\r\n\r\n    function buyTokens(uint256 _numberOfTokens) public payable {\r\n        require(msg.value > 0);\r\n        require(msg.value == multiply(_numberOfTokens, tokenPrice));\r\n        \r\n        tokenContract.addTokens(msg.sender, _numberOfTokens);\r\n        tokensInContract += _numberOfTokens;\r\n\r\n        refreshBalance();\r\n    }\r\n\r\n    function withdraw(uint256 _numberOfTokens) public {\r\n        require(_numberOfTokens > 0);\r\n        require(tokensInContract >= _numberOfTokens);\r\n        require(tokenContract.balanceOf(msg.sender) >= _numberOfTokens);\r\n\r\n        msg.sender.transfer(_numberOfTokens * tokenPrice);\r\n\r\n        tokenContract.deductTokens(msg.sender, _numberOfTokens);\r\n        tokensInContract -= _numberOfTokens;\r\n\r\n        refreshBalance();\r\n    }\r\n\r\n    // Baayati retsah!\r\n    function withdrawAll() public {\r\n        emit LogAccount(msg.sender, \"He is trying to withdraw all\");\r\n        emit LogAccount(admin, \"This is the current admin\");\r\n        require(msg.sender == admin);\r\n        admin.transfer(tokensInContract * tokenPrice);\r\n\r\n        tokenContract.deductTokens(admin, tokenContract.balanceOf(admin));  \r\n        tokensInContract = 0;\r\n\r\n        refreshBalance();\r\n    }\r\n\r\n    function refreshBalance() public {\r\n        // updates the balance.\r\n        emit BalanceOf(msg.sender, tokenContract.balanceOf(msg.sender));\r\n    }\r\n\r\n\r\n    //-------------------------------- Game Logic ----------------------------------------------\r\n\r\n    function random() private view returns (uint) {\r\n        // sha3 and now have been deprecated\r\n        // return 1;\r\n        return uint(keccak256(abi.encodePacked(block.difficulty, block.timestamp, msg.sender)));\r\n        // convert hash to integer\r\n        // players is an array of entrants\r\n        \r\n    }\r\n\r\n    event Alert(string _msg);\r\n    event SetAmount(string _user, uint _newAmount);\r\n    event ChangeHTMLText(string _id, string _newText);\r\n    event PlaceCard(string _user, uint _index, string _suit, string _value);\r\n\r\n    string[4] suits = [\"\\u2660\", \"\\u2662\", \"\\u2667\", \"\\u2665\"];\r\n    string[13] values = [\"A\", \"2\", \"3\", \"4\", \"5\", \"6\", \"7\", \"8\", \"9\", \"10\", \"J\", \"Q\", \"K\"];\r\n\r\n    mapping(string => uint) valuesToNumbers;\r\n    mapping(string => uint) userToIndex;\r\n\r\n    function initMaps() private {\r\n\r\n        valuesToNumbers[\"A\"] = 11;\r\n        valuesToNumbers[\"2\"] = 2;\r\n        valuesToNumbers[\"3\"] = 3;\r\n        valuesToNumbers[\"4\"] = 4;\r\n        valuesToNumbers[\"5\"] = 5;\r\n        valuesToNumbers[\"6\"] = 6;\r\n        valuesToNumbers[\"7\"] = 7;\r\n        valuesToNumbers[\"8\"] = 8;\r\n        valuesToNumbers[\"9\"] = 9;\r\n        valuesToNumbers[\"10\"] = 10;\r\n        valuesToNumbers[\"J\"] = 10;\r\n        valuesToNumbers[\"Q\"] = 10;\r\n        valuesToNumbers[\"K\"] = 10;\r\n\r\n        userToIndex[\"Player\"] = 0;\r\n        userToIndex[\"Dealer\"] = 1;\r\n    }\r\n\r\n    struct Card {\r\n        string value;\r\n        string suit;\r\n    }\r\n\r\n    Card[52] deck;\r\n\r\n    bool playerTurn = false;        // indicates whether the player can hit or stand\r\n    bool inGame = false;            // indicates whether the player is currently in game\r\n    uint BUSTLIMIT = 22;\r\n    uint DEALLIMIT = 17;\r\n\r\n    uint currentBet;\r\n\r\n    uint[2] indexInTable;\r\n    uint[2] amount;\r\n    uint[2] countAces;\r\n\r\n    uint indexInDeck;\r\n\r\n    function initDeck() private {\r\n        // create an orderly deck and returns it\r\n        uint index = 0;\r\n\r\n        for(uint i = 0; i < values.length; i++) {\r\n            for(uint j = 0; j < suits.length; j++) {\r\n                Card memory card = Card(values[i], suits[j]);\r\n                deck[index] = card;\r\n                index++;\r\n            }\r\n        }\r\n        indexInDeck = 0;\r\n    }\r\n\r\n    function setAmount(string memory user, uint newAmount) private {\r\n        // set the amount of the user.\r\n        amount[userToIndex[user]] = newAmount;\r\n        emit SetAmount(user, newAmount);\r\n    }\r\n\r\n    function addAmount(string memory user, uint adding, bool minus) private {\r\n        // add or sub from the amount the adding number (0 for add and 1 for sub).\r\n        uint ret = 0;\r\n        if (!minus) {\r\n            ret = amount[userToIndex[user]] + adding;\r\n        } else {\r\n            ret = amount[userToIndex[user]] - adding;\r\n        }\r\n        \r\n        setAmount(user, ret);\r\n    }\r\n\r\n    function popDeck() private returns (Card memory) {\r\n        // shuffle th first card and returns it.\r\n        shuffleFirst();\r\n        indexInDeck++;\r\n        return deck[indexInDeck - 1];\r\n    }\r\n    \r\n    function placeCard(string memory user, Card memory card) private {\r\n        // shows the new card, and updates the amont.\r\n        uint index = indexInTable[userToIndex[user]];\r\n        emit PlaceCard(user, index, card.suit, card.value);\r\n        addAmount(user, valuesToNumbers[card.value], false);\r\n        indexInTable[userToIndex[user]]++;\r\n    }\r\n\r\n\r\n    function shuffleFirst() private {\r\n        // Replace the first card of the remain deck with another random card from it.\r\n        uint location1 = indexInDeck;\r\n        uint location2 = (random() % (deck.length- indexInDeck)) + indexInDeck;\r\n        Card memory tmp = deck[location1];\r\n\r\n        deck[location1] = deck[location2];\r\n        deck[location2] = tmp;\r\n\r\n    }\r\n\r\n    function checkIfPlayerTurn() public returns(bool) {\r\n        // checks if it is player's tern in the game, and react as needed.\r\n        if (!playerTurn) {\r\n            if (!inGame) {\r\n                emit Alert(\"Press \\'New Game\\' to start!\");\r\n            } else {\r\n                emit Alert(\"It is not your turn!\");\r\n            }\r\n            return false;\r\n        }\r\n        return true;\r\n    }\r\n\r\n    function hitHTML() public {\r\n        // doing the \"hit\" turn of the player.\r\n        if (!checkIfPlayerTurn()) {\r\n            return;\r\n        }\r\n        if (hitJS(\"Player\")) {\r\n            emit ChangeHTMLText(\"msg\", \"Player bust. DEALER WINS!\");\r\n            endGame();\r\n        }\r\n    }\r\n\r\n    function hitJS(string memory user) private returns (bool) {\r\n        // opens the top card of the deck and updates the amount.\r\n        if (indexInDeck >= deck.length) {\r\n            emit Alert(\"empty deck\");\r\n            return false;\r\n        }\r\n        Card memory card = popDeck();\r\n        placeCard(user, card);\r\n        if (valuesToNumbers[card.value] == 11) {\r\n            countAces[userToIndex[user]]++;\r\n        }\r\n\r\n        return isAbove(user, BUSTLIMIT, false);\r\n\r\n    }\r\n\r\n    function standHTML() public {\r\n        // doing the \"stand\" turn of the player.\r\n\r\n        if (!checkIfPlayerTurn()) {\r\n            return;\r\n        }\r\n        playerTurn = false;\r\n        emit ChangeHTMLText(\"msg\", \"Now wait for the dealer to finish...\");\r\n        runDealer();\r\n        endGame();\r\n    }\r\n\r\n    function runDealer() private {\r\n        // doing the dealer's turn according to the game rules.\r\n        while (!isAbove(\"Dealer\", DEALLIMIT, true)) {\r\n            hitJS(\"Dealer\");\r\n        }\r\n\r\n        if (isAbove(\"Dealer\", BUSTLIMIT, false)) {\r\n            emit ChangeHTMLText(\"msg\", \"Dealer bust. PLAYER WINS!\");\r\n            playerWin();\r\n            return;\r\n        }\r\n\r\n        uint playerAmount = amount[userToIndex[\"Player\"]];\r\n        uint dealerAmount = amount[userToIndex[\"Dealer\"]];\r\n\r\n        if (playerAmount == dealerAmount) {\r\n            emit ChangeHTMLText(\"msg\", \"It's a tie!\");\r\n            tie();\r\n            return;\r\n        }\r\n\r\n        if (playerAmount > dealerAmount) {\r\n            emit ChangeHTMLText(\"msg\", \"PLAYER WINS!\");\r\n            playerWin();\r\n            return;\r\n        }\r\n\r\n        emit ChangeHTMLText(\"msg\", \"DEALER WINS!\");\r\n    }\r\n\r\n    function isAbove(string memory user, uint limit, bool deal) private returns(bool) {\r\n        // returns whether we have passed the limit\r\n        \r\n        while (amount[userToIndex[user]] >= limit) {\r\n            if ((countAces[userToIndex[user]] == 0) || deal) {\r\n                return true;\r\n            }\r\n            countAces[userToIndex[user]]--;\r\n            addAmount(user, 10, true);\r\n\r\n        }\r\n        \r\n        return false;\r\n    }   \r\n\r\n    function playerWin() private {\r\n        // add the tokens to the player\r\n        tokenContract.addTokens(msg.sender, 2 * currentBet);\r\n        refreshBalance();\r\n    }\r\n\r\n\r\n    function tie() private {\r\n        // deducts the tokens from the player\r\n        tokenContract.deductTokens(msg.sender, currentBet);\r\n        refreshBalance();\r\n    }\r\n\r\n    function cleanTable() private {\r\n        // clean all the cards\r\n        for (uint i = 1; i < indexInTable[userToIndex[\"Player\"]]; i++) {\r\n            emit PlaceCard(\"p\", i, \"remove\", \"\");\r\n        }\r\n        for (uint i = 1; i < indexInTable[userToIndex[\"Dealer\"]]; i++){\r\n            emit PlaceCard(\"d\", i, \"remove\", \"\");\r\n        }\r\n\r\n        emit ChangeHTMLText(\"msg\", \"Press \\'New Game\\' to start again!\");\r\n    }\r\n\r\n    function endGame() private {\r\n        // ends the game\r\n        playerTurn = false;\r\n        inGame = false;\r\n    }\r\n\r\n    function gameSetup() private {\r\n        // init all the setup\r\n        indexInTable = [1, 1];\r\n        amount = [0, 0];\r\n        countAces = [0, 0];\r\n        indexInDeck = 0;\r\n        setAmount(\"Player\", 0);\r\n        setAmount(\"Dealer\", 0);\r\n        hitJS(\"Dealer\");\r\n        hitJS(\"Player\");\r\n        hitJS(\"Player\");\r\n        emit ChangeHTMLText(\"msg\", \"You may HIT or STAND\");\r\n    }\r\n\r\n    function singleGame(uint betAmount) public {\r\n        // starts a new game\r\n        if (tokenContract.balanceOf(msg.sender) < betAmount) {\r\n            emit Alert(\"Not enough balance!\");\r\n            return;\r\n        }\r\n        currentBet = betAmount;\r\n        tokenContract.deductTokens(msg.sender, currentBet);\r\n        refreshBalance();\r\n        cleanTable();\r\n        gameSetup();\r\n        inGame = true;\r\n        playerTurn = true;\r\n    }\r\n}",
  "sourcePath": "C:/Users/Sagie/Desktop/Desktop/Courses/Semester D/Workshop in Smart Contracts - Solidity/git-code/bjEther/contracts/BJTokenGame.sol",
  "compiler": {
    "name": "solc",
    "version": "0.5.0+commit.1d4f565a.Emscripten.clang"
  },
  "schemaVersion": "3.0.1",
  "updatedAt": "2021-09-01T08:17:28.958Z",
  "devdoc": {
    "methods": {}
  },
  "userdoc": {
    "methods": {}
  }
}