{
  "contractName": "BJTokenGame",
  "abi": [
    {
      "constant": true,
      "inputs": [],
      "name": "tokensSold",
      "outputs": [
        {
          "name": "",
          "type": "uint256"
        }
      ],
      "payable": false,
      "stateMutability": "view",
      "type": "function",
      "signature": "0x518ab2a8"
    },
    {
      "constant": true,
      "inputs": [],
      "name": "tokenContract",
      "outputs": [
        {
          "name": "",
          "type": "address"
        }
      ],
      "payable": false,
      "stateMutability": "view",
      "type": "function",
      "signature": "0x55a373d6"
    },
    {
      "constant": true,
      "inputs": [],
      "name": "tokenPrice",
      "outputs": [
        {
          "name": "",
          "type": "uint256"
        }
      ],
      "payable": false,
      "stateMutability": "view",
      "type": "function",
      "signature": "0x7ff9b596"
    },
    {
      "inputs": [
        {
          "name": "_tokenContract",
          "type": "address"
        },
        {
          "name": "_tokenPrice",
          "type": "uint256"
        }
      ],
      "payable": false,
      "stateMutability": "nonpayable",
      "type": "constructor",
      "signature": "constructor"
    },
    {
      "anonymous": false,
      "inputs": [
        {
          "indexed": false,
          "name": "_buyer",
          "type": "address"
        },
        {
          "indexed": false,
          "name": "_amount",
          "type": "uint256"
        }
      ],
      "name": "Sell",
      "type": "event",
      "signature": "0x5e5e995ce3133561afceaa51a9a154d5db228cd7525d34df5185582c18d3df09"
    },
    {
      "constant": false,
      "inputs": [],
      "name": "buyTokens",
      "outputs": [],
      "payable": true,
      "stateMutability": "payable",
      "type": "function",
      "signature": "0xd0febe4c"
    },
    {
      "constant": false,
      "inputs": [],
      "name": "endSale",
      "outputs": [],
      "payable": false,
      "stateMutability": "nonpayable",
      "type": "function",
      "signature": "0x380d831b"
    }
  ],
  "bytecode": "0x608060405234801561001057600080fd5b506040516040806103aa8339810180604052604081101561003057600080fd5b50805160209091015160008054600160a060020a0319908116331790915560018054600160a060020a0390941693909116929092179091556002556103308061007a6000396000f3fe60806040526004361061006c5763ffffffff7c0100000000000000000000000000000000000000000000000000000000600035041663380d831b8114610071578063518ab2a81461008857806355a373d6146100af5780637ff9b596146100ed578063d0febe4c14610102575b600080fd5b34801561007d57600080fd5b5061008661010a565b005b34801561009457600080fd5b5061009d610287565b60408051918252519081900360200190f35b3480156100bb57600080fd5b506100c461028d565b6040805173ffffffffffffffffffffffffffffffffffffffff9092168252519081900360200190f35b3480156100f957600080fd5b5061009d6102a9565b6100866102af565b60005473ffffffffffffffffffffffffffffffffffffffff16331461012e57600080fd5b60015460008054604080517ff8b2cb4f000000000000000000000000000000000000000000000000000000008152306004820152905173ffffffffffffffffffffffffffffffffffffffff9485169463a9059cbb94931692859263f8b2cb4f9260248083019360209383900390910190829087803b1580156101af57600080fd5b505af11580156101c3573d6000803e3d6000fd5b505050506040513d60208110156101d957600080fd5b5051604080517c010000000000000000000000000000000000000000000000000000000063ffffffff861602815273ffffffffffffffffffffffffffffffffffffffff909316600484015260248301919091525160448083019260209291908290030181600087803b15801561024e57600080fd5b505af1158015610262573d6000803e3d6000fd5b505050506040513d602081101561027857600080fd5b5051151561028557600080fd5b565b60035481565b60015473ffffffffffffffffffffffffffffffffffffffff1681565b60025481565b600034116102bc57600080fd5b600380543490810190915560408051338152602081019290925280517f5e5e995ce3133561afceaa51a9a154d5db228cd7525d34df5185582c18d3df099281900390910190a156fea165627a7a723058206b2fa964eecbbb354d286effd5dd8fb6249934fd367e679b9f32327c0eb52d080029",
  "source": "pragma solidity ^0.5.0;\r\n\r\nimport \"./BJToken.sol\";\r\n\r\ncontract BJTokenGame {\r\n    address admin;\r\n    BJToken public tokenContract;\r\n    uint256 public tokenPrice;\r\n    uint256 public tokensSold;\r\n\r\n    event Sell(address _buyer, uint256 _amount);\r\n\r\n    constructor (BJToken _tokenContract, uint256 _tokenPrice) public {\r\n        admin = msg.sender;\r\n        tokenContract = _tokenContract;\r\n        tokenPrice = _tokenPrice;\r\n    }\r\n\r\n    // function multiply(uint x, uint y) internal pure returns (uint z) {\r\n    //     require(y == 0 || (z = x * y) / y == x);\r\n    // }\r\n\r\n    function buyTokens() public payable {\r\n        require(msg.value > 0);\r\n        // require(tokenContract.getBalance(address(this)) >= msg.value);\r\n        // require(tokenContract.transfer(msg.sender, msg.value));\r\n\r\n        tokensSold += msg.value;\r\n\r\n        emit Sell(msg.sender, msg.value);\r\n    }\r\n\r\n    function endSale() public {\r\n        require(msg.sender == admin);\r\n        require(tokenContract.transfer(admin, tokenContract.getBalance(address(this))));\r\n\r\n        // UPDATE: Let's not destroy the contract here\r\n        // Just transfer the balance to the admin\r\n        // admin.transfer(address(this).balance);\r\n    }\r\n}",
  "sourcePath": "C:/Users/Sagie/Desktop/Desktop/Courses/Semester D/Workshop in Smart Contracts - Solidity/git-code/bjEther/contracts/BJTokenGame.sol",
  "compiler": {
    "name": "solc",
    "version": "0.5.0+commit.1d4f565a.Emscripten.clang"
  },
  "schemaVersion": "3.0.1",
  "updatedAt": "2021-08-10T15:12:20.399Z",
  "devdoc": {
    "methods": {}
  },
  "userdoc": {
    "methods": {}
  }
}