{
  "contractName": "BJTokenGame",
  "abi": [
    {
      "constant": true,
      "inputs": [],
      "name": "tokenContract",
      "outputs": [
        {
          "name": "",
          "type": "address"
        }
      ],
      "payable": false,
      "stateMutability": "view",
      "type": "function",
      "signature": "0x55a373d6"
    },
    {
      "constant": true,
      "inputs": [],
      "name": "tokenPrice",
      "outputs": [
        {
          "name": "",
          "type": "uint256"
        }
      ],
      "payable": false,
      "stateMutability": "view",
      "type": "function",
      "signature": "0x7ff9b596"
    },
    {
      "inputs": [
        {
          "name": "_tokenContract",
          "type": "address"
        },
        {
          "name": "_tokenPrice",
          "type": "uint256"
        }
      ],
      "payable": false,
      "stateMutability": "nonpayable",
      "type": "constructor",
      "signature": "constructor"
    },
    {
      "anonymous": false,
      "inputs": [
        {
          "indexed": false,
          "name": "_buyer",
          "type": "address"
        },
        {
          "indexed": false,
          "name": "_amount",
          "type": "uint256"
        }
      ],
      "name": "Sell",
      "type": "event",
      "signature": "0x5e5e995ce3133561afceaa51a9a154d5db228cd7525d34df5185582c18d3df09"
    },
    {
      "constant": false,
      "inputs": [],
      "name": "buyTokens",
      "outputs": [],
      "payable": true,
      "stateMutability": "payable",
      "type": "function",
      "signature": "0xd0febe4c"
    },
    {
      "constant": false,
      "inputs": [],
      "name": "endSale",
      "outputs": [],
      "payable": false,
      "stateMutability": "nonpayable",
      "type": "function",
      "signature": "0x380d831b"
    },
    {
      "constant": false,
      "inputs": [
        {
          "name": "account",
          "type": "address"
        }
      ],
      "name": "balanceOf",
      "outputs": [
        {
          "name": "balance",
          "type": "uint256"
        }
      ],
      "payable": false,
      "stateMutability": "nonpayable",
      "type": "function",
      "signature": "0x70a08231"
    }
  ],
  "bytecode": "0x608060405234801561001057600080fd5b506040516040806104aa8339810180604052604081101561003057600080fd5b50805160209091015160008054600160a060020a0319908116331790915560018054600160a060020a0390941693909116929092179091556002556104308061007a6000396000f3fe60806040526004361061006c5763ffffffff7c0100000000000000000000000000000000000000000000000000000000600035041663380d831b811461007157806355a373d61461008857806370a08231146100b95780637ff9b596146100fe578063d0febe4c14610113575b600080fd5b34801561007d57600080fd5b5061008661011b565b005b34801561009457600080fd5b5061009d610271565b60408051600160a060020a039092168252519081900360200190f35b3480156100c557600080fd5b506100ec600480360360208110156100dc57600080fd5b5035600160a060020a0316610280565b60408051918252519081900360200190f35b34801561010a57600080fd5b506100ec61031d565b610086610323565b600054600160a060020a0316331461013257600080fd5b60015460008054604080517ff8b2cb4f0000000000000000000000000000000000000000000000000000000081523060048201529051600160a060020a039485169463a9059cbb94931692859263f8b2cb4f9260248083019360209383900390910190829087803b1580156101a657600080fd5b505af11580156101ba573d6000803e3d6000fd5b505050506040513d60208110156101d057600080fd5b5051604080517c010000000000000000000000000000000000000000000000000000000063ffffffff8616028152600160a060020a03909316600484015260248301919091525160448083019260209291908290030181600087803b15801561023857600080fd5b505af115801561024c573d6000803e3d6000fd5b505050506040513d602081101561026257600080fd5b5051151561026f57600080fd5b565b600154600160a060020a031681565b600154604080517ff8b2cb4f000000000000000000000000000000000000000000000000000000008152600160a060020a0384811660048301529151600093929092169163f8b2cb4f9160248082019260209290919082900301818787803b1580156102eb57600080fd5b505af11580156102ff573d6000803e3d6000fd5b505050506040513d602081101561031557600080fd5b505192915050565b60025481565b6000341161033057600080fd5b600154604080517f40c10f190000000000000000000000000000000000000000000000000000000081523360048201523460248201529051600160a060020a03909216916340c10f19916044808201926020929091908290030181600087803b15801561039c57600080fd5b505af11580156103b0573d6000803e3d6000fd5b505050506040513d60208110156103c657600080fd5b50506040805133815234602082015281517f5e5e995ce3133561afceaa51a9a154d5db228cd7525d34df5185582c18d3df09929181900390910190a156fea165627a7a72305820202cfc3efde05ee7eedfefc279eb97fe9054943a5ab35629ac553d29c412afcc0029",
  "source": "pragma solidity ^0.5.0;\r\n\r\nimport \"./BJToken.sol\";\r\n\r\ncontract BJTokenGame {\r\n    address admin;\r\n    BJToken public tokenContract;\r\n    uint256 public tokenPrice;\r\n\r\n    event Sell(address _buyer, uint256 _amount);\r\n\r\n    constructor (BJToken _tokenContract, uint256 _tokenPrice) public {\r\n        admin = msg.sender;\r\n        tokenContract = _tokenContract;\r\n        tokenPrice = _tokenPrice;\r\n    }\r\n\r\n    // function multiply(uint x, uint y) internal pure returns (uint z) {\r\n    //     require(y == 0 || (z = x * y) / y == x);\r\n    // }\r\n\r\n    function buyTokens() public payable {\r\n        require(msg.value > 0);\r\n        \r\n        tokenContract.mint(msg.sender, msg.value);\r\n\r\n\r\n        emit Sell(msg.sender, msg.value);\r\n    }\r\n\r\n    function endSale() public {\r\n        require(msg.sender == admin);\r\n        require(tokenContract.transfer(admin, tokenContract.getBalance(address(this))));\r\n\r\n        // UPDATE: Let's not destroy the contract here\r\n        // Just transfer the balance to the admin\r\n        // admin.transfer(address(this).balance);\r\n    }\r\n\r\n    function balanceOf(address account) public returns (uint256 balance) {\r\n        return tokenContract.getBalance(account);\r\n    }\r\n}",
  "sourcePath": "C:/Users/Sagie/Desktop/Desktop/Courses/Semester D/Workshop in Smart Contracts - Solidity/git-code/bjEther/contracts/BJTokenGame.sol",
  "compiler": {
    "name": "solc",
    "version": "0.5.0+commit.1d4f565a.Emscripten.clang"
  },
  "schemaVersion": "3.0.1",
  "updatedAt": "2021-08-11T10:50:54.633Z",
  "devdoc": {
    "methods": {}
  },
  "userdoc": {
    "methods": {}
  }
}